{
  "_format": "hh-sol-artifact-1",
  "contractName": "SlerfSwapV3PoolDeployer",
  "sourceName": "contracts/SlerfSwapV3PoolDeployer.sol",
  "abi": [
    {
      "anonymous": false,
      "inputs": [
        {
          "indexed": true,
          "internalType": "address",
          "name": "pool",
          "type": "address"
        },
        {
          "indexed": true,
          "internalType": "address",
          "name": "factory",
          "type": "address"
        },
        {
          "indexed": true,
          "internalType": "address",
          "name": "token0",
          "type": "address"
        },
        {
          "indexed": false,
          "internalType": "address",
          "name": "token1",
          "type": "address"
        },
        {
          "indexed": false,
          "internalType": "uint24",
          "name": "fee",
          "type": "uint24"
        },
        {
          "indexed": false,
          "internalType": "int24",
          "name": "tickSpacing",
          "type": "int24"
        }
      ],
      "name": "PoolDeployed",
      "type": "event"
    },
    {
      "inputs": [
        {
          "internalType": "address",
          "name": "factory",
          "type": "address"
        },
        {
          "internalType": "address",
          "name": "token0",
          "type": "address"
        },
        {
          "internalType": "address",
          "name": "token1",
          "type": "address"
        },
        {
          "internalType": "uint24",
          "name": "fee",
          "type": "uint24"
        },
        {
          "internalType": "int24",
          "name": "tickSpacing",
          "type": "int24"
        }
      ],
      "name": "deployPool",
      "outputs": [
        {
          "internalType": "address",
          "name": "pool",
          "type": "address"
        }
      ],
      "stateMutability": "nonpayable",
      "type": "function"
    },
    {
      "inputs": [],
      "name": "parameters",
      "outputs": [
        {
          "internalType": "address",
          "name": "factory",
          "type": "address"
        },
        {
          "internalType": "address",
          "name": "token0",
          "type": "address"
        },
        {
          "internalType": "address",
          "name": "token1",
          "type": "address"
        },
        {
          "internalType": "uint24",
          "name": "fee",
          "type": "uint24"
        },
        {
          "internalType": "int24",
          "name": "tickSpacing",
          "type": "int24"
        }
      ],
      "stateMutability": "view",
      "type": "function"
    },
    {
      "inputs": [],
      "name": "poolInitCodeHash",
      "outputs": [
        {
          "internalType": "bytes32",
          "name": "",
          "type": "bytes32"
        }
      ],
      "stateMutability": "pure",
      "type": "function"
    }
  ],
  "bytecode": "0x608060405234801561001057600080fd5b50615cfd806100206000396000f3fe608060405234801561001057600080fd5b50600436106100415760003560e01c80631631833f1461004657806389035730146100ac578063d64efe91146100f6575b600080fd5b610090600480360360a081101561005c57600080fd5b506001600160a01b03813581169160208101358216916040820135169062ffffff606082013516906080013560020b610110565b604080516001600160a01b039092168252519081900360200190f35b6100b4610331565b604080516001600160a01b0396871681529486166020860152929094168383015262ffffff16606083015260029290920b608082015290519081900360a00190f35b6100fe610367565b60408051918252519081900360200190f35b60006001600160a01b03861661015a576040805162461bcd60e51b815260206004820152600a6024820152696e6f2d666163746f727960b01b604482015290519081900360640190fd5b336001600160a01b038716146101a6576040805162461bcd60e51b815260206004820152600c60248201526b6f6e6c792d666163746f727960a01b604482015290519081900360640190fd5b6040805160a0810182526001600160a01b03888116808352888216602080850182905292891684860181905262ffffff898116606080880182905260028b810b6080998a01819052600080546001600160a01b03199081169099179055600180548916881790558154909716851762ffffff60a01b1916600160a01b84021762ffffff60b81b1916600160b81b97820b90941696909602929092179094558651808601939093528287019190915281810192909252845180820390920182529092019283905281519101209061027b90610399565b8190604051809103906000f590508015801561029b573d6000803e3d6000fd5b50604080516001600160a01b03878116825262ffffff87166020830152600286900b82840152915192935081881692898316928516917f7cdaa09a3de513fd3d8c3418ff558d9705f80b37e828580b03fcda861edd6ecf919081900360600190a4600080546001600160a01b0319908116909155600180549091169055600280546001600160d01b031916905595945050505050565b600054600154600280546001600160a01b03938416939283169281169162ffffff600160a01b83041691600160b81b9004900b85565b60006040518060200161037990610399565b6020820181038252601f19601f8201166040525080519060200120905090565b615921806103a78339019056fe6101606040523480156200001257600080fd5b503060601b60805260408051630890357360e41b81529051600091339163890357309160048082019260a092909190829003018186803b1580156200005657600080fd5b505afa1580156200006b573d6000803e3d6000fd5b505050506040513d60a08110156200008257600080fd5b508051602080830151604084015160608086015160809096015160e896871b6001600160e81b0319166101005291811b6001600160601b031990811660e05292811b831660c0529390931b1660a052600282810b900b90921b610120529150620000f79082906200010f811b62002c7317901c565b60801b6001600160801b03191661014052506200017d565b60008082600281900b620d89e719816200012557fe5b05029050600083600281900b620d89e8816200013d57fe5b0502905060008460020b83830360020b816200015557fe5b0560010190508062ffffff166001600160801b038016816200017357fe5b0495945050505050565b60805160601c60a05160601c60c05160601c60e05160601c6101005160e81c6101205160e81c6101405160801c6156c36200025e600039806120685280614bc25280614bf9525080610b9852806129dc5280614c2d5280614c5f525080610c875280610d5a528061199a5280611a155280611a4c52806121815280612a245280612b2452508061119b5280611acf5280611f6e528061252b5280612a005280613efe52508061086a52806112c95280611a9e5280611f0852806124a55280613db55250806120f5528061236452806129b8525080612cea52506156c36000f3fe608060405234801561001057600080fd5b506004361061014e5760003560e01c806370cf754a116100be57806370cf754a146105605780638206a4d11461056857806385b6672914610590578063883bdbfd146105cd578063a34123a7146106d4578063a38807f21461070e578063c45a015514610769578063d0c93a7c14610771578063d21220a714610790578063ddca3f4314610798578063f3058399146107b8578063f30dba93146107c0578063f637731d146108425761014e565b80630dfe168114610153578063128acb08146101775780631a686502146102245780631ad8b03b14610248578063252c09d71461027f57806332148f67146102d65780633850c7bd146102f95780633c8a7d8d1461035257806346141319146103f2578063490e6cbc1461040c5780634f1eb3d814610496578063514ea4bf146104e75780635339c29614610540575b600080fd5b61015b610868565b604080516001600160a01b039092168252519081900360200190f35b61020b600480360360a081101561018d57600080fd5b6001600160a01b0382358116926020810135151592604082013592606083013516919081019060a081016080820135600160201b8111156101cd57600080fd5b8201836020820111156101df57600080fd5b803590602001918460018302840111600160201b8311171561020057600080fd5b50909250905061088c565b6040805192835260208301919091528051918290030190f35b61022c611481565b604080516001600160801b039092168252519081900360200190f35b610250611490565b60405180836001600160801b03168152602001826001600160801b031681526020019250505060405180910390f35b61029c6004803603602081101561029557600080fd5b50356114aa565b6040805163ffffffff909516855260069390930b60208501526001600160a01b039091168383015215156060830152519081900360800190f35b6102f7600480360360208110156102ec57600080fd5b503561ffff166114ef565b005b6103016115e9565b604080516001600160a01b03909816885260029690960b602088015261ffff9485168787015292841660608701529216608085015260ff90911660a0840152151560c0830152519081900360e00190f35b61020b600480360360a081101561036857600080fd5b6001600160a01b03823516916020810135600290810b92604083013590910b916001600160801b036060820135169181019060a081016080820135600160201b8111156103b457600080fd5b8201836020820111156103c657600080fd5b803590602001918460018302840111600160201b831117156103e757600080fd5b509092509050611639565b6103fa6118f5565b60408051918252519081900360200190f35b6102f76004803603608081101561042257600080fd5b6001600160a01b038235169160208101359160408201359190810190608081016060820135600160201b81111561045857600080fd5b82018360208201111561046a57600080fd5b803590602001918460018302840111600160201b8311171561048b57600080fd5b5090925090506118fb565b610250600480360360a08110156104ac57600080fd5b506001600160a01b03813516906020810135600290810b91604081013590910b906001600160801b0360608201358116916080013516611dfd565b610504600480360360208110156104fd57600080fd5b5035612017565b604080516001600160801b0396871681526020810195909552848101939093529084166060840152909216608082015290519081900360a00190f35b6103fa6004803603602081101561055657600080fd5b503560010b612054565b61022c612066565b6102f76004803603604081101561057e57600080fd5b5060ff8135811691602001351661208a565b610250600480360360608110156105a657600080fd5b506001600160a01b03813516906001600160801b03602082013581169160400135166122f6565b61063b600480360360208110156105e357600080fd5b810190602081018135600160201b8111156105fd57600080fd5b82018360208201111561060f57600080fd5b803590602001918460208302840111600160201b8311171561063057600080fd5b5090925090506125c3565b604051808060200180602001838103835285818151815260200191508051906020019060200280838360005b8381101561067f578181015183820152602001610667565b50505050905001838103825284818151815260200191508051906020019060200280838360005b838110156106be5781810151838201526020016106a6565b5050505090500194505050505060405180910390f35b61020b600480360360608110156106ea57600080fd5b508035600290810b91602081013590910b90604001356001600160801b0316612650565b6107386004803603604081101561072457600080fd5b508035600290810b9160200135900b6127c7565b6040805160069490940b84526001600160a01b03909216602084015263ffffffff1682820152519081900360600190f35b61015b6129b6565b6107796129da565b6040805160029290920b8252519081900360200190f35b61015b6129fe565b6107a0612a22565b6040805162ffffff9092168252519081900360200190f35b6103fa612a46565b6107e0600480360360208110156107d657600080fd5b503560020b612a4c565b604080516001600160801b039099168952600f9790970b602089015287870195909552606087019390935260069190910b60808601526001600160a01b031660a085015263ffffffff1660c0840152151560e083015251908190036101000190f35b6102f76004803603602081101561085857600080fd5b50356001600160a01b0316612ab6565b7f000000000000000000000000000000000000000000000000000000000000000081565b600080610897612cdf565b856108ce576040805162461bcd60e51b8152602060048201526002602482015261415360f01b604482015290519081900360640190fd5b6040805160e0810182526000546001600160a01b0381168252600160a01b8104600290810b810b900b602083015261ffff600160b81b8204811693830193909352600160c81b810483166060830152600160d81b8104909216608082015260ff600160e81b8304811660a0830152600160f01b909204909116151560c08201819052610987576040805162461bcd60e51b81526020600482015260036024820152624c4f4b60e81b604482015290519081900360640190fd5b876109d25780600001516001600160a01b0316866001600160a01b03161180156109cd575073fffd8963efd1fc6a506488495d951d5263988d266001600160a01b038716105b610a04565b80600001516001600160a01b0316866001600160a01b0316108015610a0457506401000276a36001600160a01b038716115b610a3b576040805162461bcd60e51b815260206004820152600360248201526214d41360ea1b604482015290519081900360640190fd5b6000805460ff60f01b191681556040805160c08101909152808a610a6a5760048460a0015160ff16901c610a7d565b60108460a0015160ff1681610a7b57fe5b065b60ff1681526004546001600160801b03166020820152604001610a9e612d16565b63ffffffff168152602001600060060b815260200160006001600160a01b031681526020016000151581525090506000808913905060006040518060e001604052808b81526020016000815260200185600001516001600160a01b03168152602001856020015160020b81526020018c610b1a57600254610b1e565b6001545b815260200160006001600160801b0316815260200184602001516001600160801b031681525090505b805115801590610b6d5750886001600160a01b031681604001516001600160a01b031614155b15610f8d57610b7a61562a565b60408201516001600160a01b031681526060820151610bbd906006907f00000000000000000000000000000000000000000000000000000000000000008f612d1a565b15156040830152600290810b810b60208301819052620d89e719910b1215610bee57620d89e7196020820152610c0d565b6020810151620d89e860029190910b1315610c0d57620d89e860208201525b610c1a8160200151612e5c565b6001600160a01b031660608201526040820151610cab908d610c54578b6001600160a01b031683606001516001600160a01b031611610c6e565b8b6001600160a01b031683606001516001600160a01b0316105b610c7c578260600151610c7e565b8b5b60c085015185517f0000000000000000000000000000000000000000000000000000000000000000613183565b60c085015260a084015260808301526001600160a01b031660408301528215610d0d57610ce18160c001518260800151016133ad565b825103825260a0810151610d0390610cf8906133ad565b6020840151906133c3565b6020830152610d48565b610d1a8160a001516133ad565b825101825260c08101516080820151610d4291610d3791016133ad565b6020840151906133df565b60208301525b835160ff1615801590610d80575060007f000000000000000000000000000000000000000000000000000000000000000062ffffff16115b15610de4576000846000015160ff16600314610db057846000015160ff168260c0015181610daa57fe5b04610dc3565b600a8260c0015160030281610dc157fe5b045b60c083018051829003905260a0840180519091016001600160801b03169052505b60c08201516001600160801b031615610e2357610e178160c00151600160801b8460c001516001600160801b03166133f5565b60808301805190910190525b80606001516001600160a01b031682604001516001600160a01b03161415610f4c57806040015115610f23578360a00151610ead57610e8b846040015160008760200151886040015188602001518a6060015160086134a5909695949392919063ffffffff16565b6001600160a01b03166080860152600690810b900b6060850152600160a08501525b6000610ef982602001518e610ec457600154610eca565b84608001515b8f610ed9578560800151610edd565b6002545b608089015160608a015160408b01516005959493929190613637565b90508c15610f05576000035b610f138360c00151826136f1565b6001600160801b031660c0840152505b8b610f32578060200151610f3b565b60018160200151035b600290810b900b6060830152610f87565b80600001516001600160a01b031682604001516001600160a01b031614610f8757610f7a82604001516137a7565b600290810b900b60608301525b50610b47565b836020015160020b816060015160020b1461105b57600080610fdb86604001518660400151886020015188602001518a606001518b608001516008613a93909695949392919063ffffffff16565b604085015160608601516000805461ffff60c81b1916600160c81b61ffff958616021761ffff60b81b1916600160b81b95909416949094029290921762ffffff60a01b1916600160a01b62ffffff60029490940b9390931692909202919091176001600160a01b0319166001600160a01b03909116179055506110809050565b6040810151600080546001600160a01b0319166001600160a01b039092169190911790555b8060c001516001600160801b031683602001516001600160801b0316146110c65760c0810151600480546001600160801b0319166001600160801b039092169190911790555b8a1561111657608081015160015560a08101516001600160801b0316156111115760a0810151600380546001600160801b031981166001600160801b03918216909301169190911790555b61115c565b608081015160025560a08101516001600160801b03161561115c5760a0810151600380546001600160801b03808216600160801b92839004821690940116029190911790555b8115158b15151461117557602081015181518b03611182565b80600001518a0381602001515b90965094508a156112bb5760008512156111c4576111c47f00000000000000000000000000000000000000000000000000000000000000008d87600003613c19565b60006111ce613d67565b9050336001600160a01b031663fa461e3388888c8c6040518563ffffffff1660e01b815260040180858152602001848152602001806020018281038252848482818152602001925080828437600081840152601f19601f82011690508083019250505095505050505050600060405180830381600087803b15801561125257600080fd5b505af1158015611266573d6000803e3d6000fd5b50505050611272613d67565b61127c8289613ea0565b11156112b5576040805162461bcd60e51b815260206004820152600360248201526249494160e81b604482015290519081900360640190fd5b506113e5565b60008612156112f2576112f27f00000000000000000000000000000000000000000000000000000000000000008d88600003613c19565b60006112fc613eb0565b9050336001600160a01b031663fa461e3388888c8c6040518563ffffffff1660e01b815260040180858152602001848152602001806020018281038252848482818152602001925080828437600081840152601f19601f82011690508083019250505095505050505050600060405180830381600087803b15801561138057600080fd5b505af1158015611394573d6000803e3d6000fd5b505050506113a0613eb0565b6113aa8288613ea0565b11156113e3576040805162461bcd60e51b815260206004820152600360248201526249494160e81b604482015290519081900360640190fd5b505b60408082015160c083015160608085015184518b8152602081018b90526001600160a01b03948516818701526001600160801b039093169183019190915260020b60808201529151908e169133917fc42079f94a6350d7e6235f29174924f928cc2ac818eb64fed8004e115fbcca679181900360a00190a350506000805460ff60f01b1916600160f01b17905550919890975095505050505050565b6004546001600160801b031681565b6003546001600160801b0380821691600160801b90041682565b60088161ffff81106114bb57600080fd5b015463ffffffff81169150600160201b810460060b90600160581b81046001600160a01b031690600160f81b900460ff1684565b600054600160f01b900460ff16611533576040805162461bcd60e51b81526020600482015260036024820152624c4f4b60e81b604482015290519081900360640190fd5b6000805460ff60f01b19169055611548612cdf565b60008054600160d81b900461ffff169061156460088385613f48565b6000805461ffff808416600160d81b810261ffff60d81b19909316929092179092559192508316146115d1576040805161ffff80851682528316602082015281517fac49e518f90a358f652e4400164f05a5d8f7e35e7747279bc3a93dbf584e125a929181900390910190a15b50506000805460ff60f01b1916600160f01b17905550565b6000546001600160a01b03811690600160a01b810460020b9061ffff600160b81b8204811691600160c81b8104821691600160d81b8204169060ff600160e81b8204811691600160f01b90041687565b600080548190600160f01b900460ff16611680576040805162461bcd60e51b81526020600482015260036024820152624c4f4b60e81b604482015290519081900360640190fd5b6000805460ff60f01b191690556001600160801b0385166116a057600080fd5b6000806116ee60405180608001604052808c6001600160a01b031681526020018b60020b81526020018a60020b81526020016116e48a6001600160801b0316613feb565b600f0b9052613ffc565b925092505081935080925060008060008611156117105761170d613d67565b91505b84156117215761171e613eb0565b90505b336001600160a01b031663d348799787878b8b6040518563ffffffff1660e01b815260040180858152602001848152602001806020018281038252848482818152602001925080828437600081840152601f19601f82011690508083019250505095505050505050600060405180830381600087803b1580156117a357600080fd5b505af11580156117b7573d6000803e3d6000fd5b50505050600086111561180e576117cc613d67565b6117d68388613ea0565b111561180e576040805162461bcd60e51b815260206004820152600260248201526104d360f41b604482015290519081900360640190fd5b841561185e5761181c613eb0565b6118268287613ea0565b111561185e576040805162461bcd60e51b81526020600482015260026024820152614d3160f01b604482015290519081900360640190fd5b8960020b8b60020b8d6001600160a01b03167f7a53080ba414158be7ec69b987b5fb7d07dee101fe85488f0853ae16239d0bde338d8b8b60405180856001600160a01b03168152602001846001600160801b0316815260200183815260200182815260200194505050505060405180910390a450506000805460ff60f01b1916600160f01b17905550919890975095505050505050565b60025481565b600054600160f01b900460ff1661193f576040805162461bcd60e51b81526020600482015260036024820152624c4f4b60e81b604482015290519081900360640190fd5b6000805460ff60f01b19169055611954612cdf565b6004546001600160801b031680611996576040805162461bcd60e51b81526020600482015260016024820152601360fa1b604482015290519081900360640190fd5b60007f000000000000000000000000000000000000000000000000000000000000000062ffffff1611611a0d576040805162461bcd60e51b815260206004820152601a602482015279666c6173682d64697361626c65642d6f6e2d7a65726f2d66656560301b604482015290519081900360640190fd5b6000611a42867f000000000000000000000000000000000000000000000000000000000000000062ffffff16620f424061423c565b90506000611a79867f000000000000000000000000000000000000000000000000000000000000000062ffffff16620f424061423c565b90506000611a85613d67565b90506000611a91613eb0565b90508815611ac457611ac47f00000000000000000000000000000000000000000000000000000000000000008b8b613c19565b8715611af557611af57f00000000000000000000000000000000000000000000000000000000000000008b8a613c19565b336001600160a01b031663e9cbafb085858a8a6040518563ffffffff1660e01b815260040180858152602001848152602001806020018281038252848482818152602001925080828437600081840152601f19601f82011690508083019250505095505050505050600060405180830381600087803b158015611b7757600080fd5b505af1158015611b8b573d6000803e3d6000fd5b505050506000611b99613d67565b90506000611ba5613eb0565b905081611bb28588613ea0565b1115611bea576040805162461bcd60e51b8152602060048201526002602482015261046360f41b604482015290519081900360640190fd5b80611bf58487613ea0565b1115611c2d576040805162461bcd60e51b8152602060048201526002602482015261463160f01b604482015290519081900360640190fd5b8382038382038115611cd45760008054600160e81b9004600f16908115611c78578160ff16600314611c6b578160ff168481611c6557fe5b04611c73565b600a60038502045b611c7b565b60005b90506001600160801b03811615611cae57600380546001600160801b038082168401166001600160801b03199091161790555b611cc8818503600160801b8d6001600160801b03166133f5565b60018054909101905550505b8015611d775760008054600160e81b900460041c600f16908115611d1c578160ff16600314611d0f578160ff168381611d0957fe5b04611d17565b600a60038402045b611d1f565b60005b90506001600160801b03811615611d5157600380546001600160801b03600160801b8083048216850182160291161790555b611d6b818403600160801b8d6001600160801b03166133f5565b60028054909101905550505b8d6001600160a01b0316336001600160a01b03167fbdbdb71d7860376ba52b25a5028beea23581364a40522f6bcfb86bb1f2dca6338f8f86866040518085815260200184815260200183815260200182815260200194505050505060405180910390a350506000805460ff60f01b1916600160f01b179055505050505050505050505050565b600080548190600160f01b900460ff16611e44576040805162461bcd60e51b81526020600482015260036024820152624c4f4b60e81b604482015290519081900360640190fd5b6000805460ff60f01b19168155611e5e6007338989614276565b60038101549091506001600160801b0390811690861611611e7f5784611e8e565b60038101546001600160801b03165b60038201549093506001600160801b03600160801b909104811690851611611eb65783611ecc565b6003810154600160801b90046001600160801b03165b91506001600160801b03831615611f31576003810180546001600160801b031981166001600160801b03918216869003821617909155611f31907f0000000000000000000000000000000000000000000000000000000000000000908a908616613c19565b6001600160801b03821615611f97576003810180546001600160801b03600160801b808304821686900382160291811691909117909155611f97907f0000000000000000000000000000000000000000000000000000000000000000908a908516613c19565b604080516001600160a01b038a1681526001600160801b0380861660208301528416818301529051600288810b92908a900b9133917f70935338e69775456a85ddef226c395fb668b63fa0115f5f20610b388e6ca9c0919081900360600190a4506000805460ff60f01b1916600160f01b17905590969095509350505050565b60076020526000908152604090208054600182015460028301546003909301546001600160801b0392831693919281811691600160801b90041685565b60066020526000908152604090205481565b7f000000000000000000000000000000000000000000000000000000000000000081565b600054600160f01b900460ff166120ce576040805162461bcd60e51b81526020600482015260036024820152624c4f4b60e81b604482015290519081900360640190fd5b6000805460ff60f01b1916905560408051638da5cb5b60e01b815290516001600160a01b037f00000000000000000000000000000000000000000000000000000000000000001691638da5cb5b916004808301926020929190829003018186803b15801561213b57600080fd5b505afa15801561214f573d6000803e3d6000fd5b505050506040513d602081101561216557600080fd5b50516001600160a01b0316331461217b57600080fd5b62ffffff7f0000000000000000000000000000000000000000000000000000000000000000166121ff5760ff82161580156121b7575060ff8116155b6121fa576040805162461bcd60e51b815260206004820152600f60248201526e05a45524f5f4645455f4f4e4c595f3608c1b604482015290519081900360640190fd5b612259565b8160ff16600314801561221557508060ff166003145b612259576040805162461bcd60e51b815260206004820152601060248201526f119256115117cccc17d4115490d1539560821b604482015290519081900360640190fd5b60008054610ff0600484901b16840160ff908116600160e81b90810260ff60e81b19841617909355919004167f973d8d92bb299f4af6ce49b52a8adb85ae46b9f214c4c4fc06ac77401237b1336010826040805160ff9390920683168252600f600486901c16602083015286831682820152918516606082015290519081900360800190a150506000805460ff60f01b1916600160f01b17905550565b600080548190600160f01b900460ff1661233d576040805162461bcd60e51b81526020600482015260036024820152624c4f4b60e81b604482015290519081900360640190fd5b6000805460ff60f01b1916905560408051638da5cb5b60e01b815290516001600160a01b037f00000000000000000000000000000000000000000000000000000000000000001691638da5cb5b916004808301926020929190829003018186803b1580156123aa57600080fd5b505afa1580156123be573d6000803e3d6000fd5b505050506040513d60208110156123d457600080fd5b50516001600160a01b031633146123ea57600080fd5b6003546001600160801b03908116908516116124065783612413565b6003546001600160801b03165b6003549092506001600160801b03600160801b909104811690841611612439578261244d565b600354600160801b90046001600160801b03165b90506001600160801b038216156124ce576003546001600160801b038381169116141561247c57600019909101905b600380546001600160801b031981166001600160801b039182168590038216179091556124ce907f00000000000000000000000000000000000000000000000000000000000000009087908516613c19565b6001600160801b03811615612554576003546001600160801b03828116600160801b9092041614156124ff57600019015b600380546001600160801b03600160801b808304821685900382160291811691909117909155612554907f00000000000000000000000000000000000000000000000000000000000000009087908416613c19565b604080516001600160801b0380851682528316602082015281516001600160a01b0388169233927f596b573906218d3411850b26a6b437d6c4522fdb43d2d2386263f86d50b8b151929081900390910190a36000805460ff60f01b1916600160f01b1790559094909350915050565b6060806125ce612cdf565b6126456125d9612d16565b858580806020026020016040519081016040528093929190818152602001838360200280828437600092018290525054600454600896959450600160a01b820460020b935061ffff600160b81b8304811693506001600160801b0390911691600160c81b9004166142d5565b915091509250929050565b600080548190600160f01b900460ff16612697576040805162461bcd60e51b81526020600482015260036024820152624c4f4b60e81b604482015290519081900360640190fd5b6000805460ff60f01b1916815560408051608081018252338152600288810b602083015287900b91810191909152819081906126f090606081016126e36001600160801b038a16613feb565b600003600f0b9052613ffc565b92509250925081600003945080600003935060008511806127115750600084115b15612750576003830180546001600160801b038082168089018216600160801b93849004831689019092169092029091176001600160801b0319161790555b604080516001600160801b0388168152602081018790528082018690529051600289810b92908b900b9133917f0c396cd989a39f4459b5fa1aed6a9a8dcdbc45908acfd67e028cd568da98982c919081900360600190a450506000805460ff60f01b1916600160f01b179055509094909350915050565b60008060006127d4612cdf565b6127de858561442d565b600285810b810b60009081526005602052604080822087840b90930b825281206003830154600681900b93600160381b82046001600160a01b0316928492600160d81b810463ffffffff169284929091600160f81b900460ff168061284257600080fd5b6003820154600681900b9850600160381b81046001600160a01b03169650600160d81b810463ffffffff169450600160f81b900460ff168061288357600080fd5b50506040805160e0810182526000546001600160a01b0381168252600160a01b8104600290810b810b810b6020840181905261ffff600160b81b8404811695850195909552600160c81b830485166060850152600160d81b8304909416608084015260ff600160e81b8304811660a0850152600160f01b909204909116151560c08301529093508e810b91900b1215905061292c575093909403965090039350900390506129af565b8a60020b816020015160020b12156129a0576000612948612d16565b602083015160408401516004546060860151939450600093849361297e936008938893879392916001600160801b0316906134a5565b9a9003989098039b5050949096039290920396509091030392506129af915050565b50949093039650039350900390505b9250925092565b7f000000000000000000000000000000000000000000000000000000000000000081565b7f000000000000000000000000000000000000000000000000000000000000000081565b7f000000000000000000000000000000000000000000000000000000000000000081565b7f000000000000000000000000000000000000000000000000000000000000000081565b60015481565b60056020526000908152604090208054600182015460028301546003909301546001600160801b03831693600160801b909304600f0b9290600681900b90600160381b81046001600160a01b031690600160d81b810463ffffffff1690600160f81b900460ff1688565b6000546001600160a01b031615612af9576040805162461bcd60e51b8152602060048201526002602482015261414960f01b604482015290519081900360640190fd5b6000612b04826137a7565b9050600080612b1c612b14612d16565b6008906144f6565b9150915060007f000000000000000000000000000000000000000000000000000000000000000062ffffff16600014612b56576033612b59565b60005b6040805160e0810182526001600160a01b038816808252600288810b6020808501829052600085870181905261ffff8b811660608801819052908b166080880181905260ff8a1660a08901819052600160c0909901989098528254600160f01b6001600160a01b0319909116881762ffffff60a01b1916600160a01b62ffffff9888900b98909816979097029690961763ffffffff60b81b1916600160c81b9092029190911761ffff60d81b1916600160d81b9091021760ff60e81b1916600160e81b9096029590951760ff60f01b191692909217909355835191825281019190915281519293507f98636036cb66a9c19a37435efc1e90142190214e8abeb821bdba3f2990dd4c95929081900390910190a15050505050565b60008082600281900b620d89e71981612c8857fe5b05029050600083600281900b620d89e881612c9f57fe5b0502905060008460020b83830360020b81612cb657fe5b0560010190508062ffffff166001600160801b03801681612cd357fe5b0493505050505b919050565b306001600160a01b037f00000000000000000000000000000000000000000000000000000000000000001614612d1457600080fd5b565b4290565b60008060008460020b8660020b81612d2e57fe5b05905060008660020b128015612d5557508460020b8660020b81612d4e57fe5b0760020b15155b15612d5f57600019015b8315612dd457600080612d7183614542565b600182810b810b600090815260208d9052604090205460ff83169190911b80016000190190811680151597509294509092509085612db657888360ff16860302612dc9565b88612dc082614554565b840360ff168603025b965050505050612e52565b600080612de383600101614542565b91509150600060018260ff166001901b031990506000818b60008660010b60010b8152602001908152602001600020541690508060001415955085612e3557888360ff0360ff16866001010102612e4b565b8883612e40836145ee565b0360ff168660010101025b9650505050505b5094509492505050565b60008060008360020b12612e73578260020b612e7b565b8260020b6000035b9050620d89e8811115612eb9576040805162461bcd60e51b81526020600482015260016024820152601560fa1b604482015290519081900360640190fd5b600060018216612ecd57600160801b612edf565b6ffffcb933bd6fad37aa2d162d1a5940015b6001600160881b031690506002821615612f09576ffff97272373d413259a46990580e213a0260801c5b6004821615612f28576ffff2e50f5f656932ef12357cf3c7fdcc0260801c5b6008821615612f47576fffe5caca7e10e4e61c3624eaa0941cd00260801c5b6010821615612f66576fffcb9843d60f6159c9db58835c9266440260801c5b6020821615612f85576fff973b41fa98c081472e6896dfb254c00260801c5b6040821615612fa4576fff2ea16466c96a3843ec78b326b528610260801c5b6080821615612fc3576ffe5dee046a99a2a811c461f1969c30530260801c5b610100821615612fe3576ffcbe86c7900a88aedcffc83b479aa3a40260801c5b610200821615613003576ff987a7253ac413176f2b074cf7815e540260801c5b610400821615613023576ff3392b0822b70005940c7a398e4b70f30260801c5b610800821615613043576fe7159475a2c29b7443b29c7fa6e889d90260801c5b611000821615613063576fd097f3bdfd2022b8845ad8f792aa58250260801c5b612000821615613083576fa9f746462d870fdf8a65dc1f90e061e50260801c5b6140008216156130a3576f70d869a156d2a1b890bb3df62baf32f70260801c5b6180008216156130c3576f31be135f97d08fd981231505542fcfa60260801c5b620100008216156130e4576f09aa508b5b7a84e1c677de54f3e99bc90260801c5b62020000821615613104576e5d6af8dedb81196699c329225ee6040260801c5b62040000821615613123576d2216e584f5fa1ea926041bedfe980260801c5b62080000821615613140576b048a170391f7dc42444e8fa20260801c5b60008460020b131561315b57806000198161315757fe5b0490505b600160201b81061561316e576001613171565b60005b60ff16602082901c0192505050919050565b60008080806001600160a01b03808916908a16101581871280159061321a57600062ffffff8816156131cc576131c78989620f42400362ffffff16620f42406133f5565b6131ce565b885b9050826131e7576131e28c8c8c60016146d7565b6131f4565b6131f48b8d8c6001614752565b9550858110613205578a9650613214565b6132118c8b83866147fd565b96505b50613264565b816132315761322c8b8b8b6000614752565b61323e565b61323e8a8c8b60006146d7565b935083886000031061325257899550613264565b6132618b8a8a60000385614849565b95505b6001600160a01b038a81169087161482156132c7578080156132835750815b61329957613294878d8c6001614752565b61329b565b855b95508080156132a8575081155b6132be576132b9878d8c60006146d7565b6132c0565b845b9450613311565b8080156132d15750815b6132e7576132e28c888c60016146d7565b6132e9565b855b95508080156132f6575081155b61330c576133078c888c6000614752565b61330e565b845b94505b8115801561332157508860000385115b1561332d578860000394505b81801561334c57508a6001600160a01b0316876001600160a01b031614155b1561336e5762ffffff88161561336457858903613367565b60005b935061339e565b62ffffff88161561339857613393868962ffffff168a620f42400362ffffff1661423c565b61339b565b60005b93505b50505095509550955095915050565b6000600160ff1b82106133bf57600080fd5b5090565b808203828113156000831215146133d957600080fd5b92915050565b818101828112156000831215146133d957600080fd5b600080806000198587098686029250828110908390030390508061342b576000841161342057600080fd5b50829004905061349e565b80841161343757600080fd5b6000848688096000868103871696879004966002600389028118808a02820302808a02820302808a02820302808a02820302808a02820302808a02909103029181900381900460010186841190950394909402919094039290920491909117919091029150505b9392505050565b60008063ffffffff871661354b576000898661ffff1661ffff81106134c657fe5b60408051608081018252919092015463ffffffff808216808452600160201b8304600690810b810b900b6020850152600160581b83046001600160a01b031694840194909452600160f81b90910460ff16151560608301529092508a161461353757613534818a8988614895565b90505b80602001518160400151925092505061362b565b8688036000806135608c8c858c8c8c8c614938565b91509150816000015163ffffffff168363ffffffff16141561359257816020015182604001519450945050505061362b565b805163ffffffff848116911614156135ba57806020015181604001519450945050505061362b565b8151815160208085015190840151918390039286039163ffffffff80841692908516910360060b816135e857fe5b05028460200151018263ffffffff168263ffffffff1686604001518660400151036001600160a01b0316028161361a57fe5b048560400151019650965050505050505b97509795505050505050565b600295860b860b60009081526020979097526040909620600181018054909503909455938301805490920390915560038201805463ffffffff600160d81b6001600160a01b03600160381b808504821690960316909402600160381b600160d81b031990921691909117600681810b90960390950b66ffffffffffffff1666ffffffffffffff199095169490941782810485169095039093160263ffffffff60d81b1990931692909217905554600160801b9004600f0b90565b60008082600f0b121561375657826001600160801b03168260000384039150816001600160801b031610613751576040805162461bcd60e51b81526020600482015260026024820152614c5360f01b604482015290519081900360640190fd5b6133d9565b826001600160801b03168284019150816001600160801b031610156133d9576040805162461bcd60e51b81526020600482015260026024820152614c4160f01b604482015290519081900360640190fd5b60006401000276a36001600160a01b038316108015906137e3575073fffd8963efd1fc6a506488495d951d5263988d266001600160a01b038316105b613818576040805162461bcd60e51b81526020600482015260016024820152602960f91b604482015290519081900360640190fd5b640100000000600160c01b03602083901b166001600160801b03811160071b81811c6001600160401b03811160061b90811c63ffffffff811160051b90811c61ffff811160041b90811c60ff8111600390811b91821c600f811160021b90811c918211600190811b92831c979088119617909417909217179091171717608081106138ab57607f810383901c91506138b5565b80607f0383901b91505b908002607f81811c60ff83811c9190911c800280831c81831c1c800280841c81841c1c800280851c81851c1c800280861c81861c1c800280871c81871c1c800280881c81881c1c800280891c81891c1c8002808a1c818a1c1c8002808b1c818b1c1c8002808c1c818c1c1c8002808d1c818d1c1c8002808e1c9c81901c9c909c1c80029c8d901c9e9d607f198f0160401b60c09190911c6001603f1b161760c19b909b1c6001603e1b169a909a1760c29990991c6001603d1b169890981760c39790971c6001603c1b169690961760c49590951c6001603b1b169490941760c59390931c6001603a1b169290921760c69190911c600160391b161760c79190911c600160381b161760c89190911c600160371b161760c99190911c600160361b161760ca9190911c600160351b161760cb9190911c600160341b161760cc9190911c600160331b161760cd9190911c600160321b1617693627a301d71055774c8581026f028f6481ab7f045a5af012a19d003aa9198101608090811d906fdb2df09e81959a81455e260799a0632f8301901d600281810b9083900b14613a8457886001600160a01b0316613a6882612e5c565b6001600160a01b03161115613a7d5781613a7f565b805b613a86565b815b9998505050505050505050565b6000806000898961ffff1661ffff8110613aa957fe5b60408051608081018252919092015463ffffffff808216808452600160201b8304600690810b810b900b6020850152600160581b83046001600160a01b031694840194909452600160f81b90910460ff161515606083015290925089161415613b18578885925092505061362b565b8461ffff168461ffff16118015613b3957506001850361ffff168961ffff16145b15613b4657839150613b4a565b8491505b8161ffff168960010161ffff1681613b5e57fe5b069250613b6d81898989614895565b8a8461ffff1661ffff8110613b7e57fe5b825191018054602084015160408501516060909501511515600160f81b026001600160f81b036001600160a01b03909616600160581b02600160581b600160f81b031960069390930b66ffffffffffffff16600160201b026affffffffffffff000000001963ffffffff90971663ffffffff199095169490941795909516929092171692909217929092161790555097509795505050505050565b604080516001600160a01b038481166024830152604480830185905283518084039091018152606490920183526020820180516001600160e01b031663a9059cbb60e01b1781529251825160009485949389169392918291908083835b60208310613c955780518252601f199092019160209182019101613c76565b6001836020036101000a0380198251168184511680821785525050505050509050019150506000604051808303816000865af19150503d8060008114613cf7576040519150601f19603f3d011682016040523d82523d6000602084013e613cfc565b606091505b5091509150818015613d2a575080511580613d2a5750808060200190516020811015613d2757600080fd5b50515b613d60576040805162461bcd60e51b81526020600482015260026024820152612a2360f11b604482015290519081900360640190fd5b5050505050565b604080513060248083019190915282518083039091018152604490910182526020810180516001600160e01b03166370a0823160e01b17815291518151600093849384936001600160a01b037f00000000000000000000000000000000000000000000000000000000000000001693919290918291908083835b60208310613e005780518252601f199092019160209182019101613de1565b6001836020036101000a038019825116818451168082178552505050505050905001915050600060405180830381855afa9150503d8060008114613e60576040519150601f19603f3d011682016040523d82523d6000602084013e613e65565b606091505b5091509150818015613e7957506020815110155b613e8257600080fd5b808060200190516020811015613e9757600080fd5b50519250505090565b808201828110156133d957600080fd5b604080513060248083019190915282518083039091018152604490910182526020810180516001600160e01b03166370a0823160e01b17815291518151600093849384936001600160a01b037f000000000000000000000000000000000000000000000000000000000000000016939192909182919080838360208310613e005780518252601f199092019160209182019101613de1565b6000808361ffff1611613f86576040805162461bcd60e51b81526020600482015260016024820152604960f81b604482015290519081900360640190fd5b8261ffff168261ffff1611613f9c57508161349e565b825b8261ffff168161ffff161015613fe2576001858261ffff1661ffff8110613fc157fe5b01805463ffffffff191663ffffffff92909216919091179055600101613f9e565b50909392505050565b80600f81900b8114612cda57600080fd5b6000806000614009612cdf565b61401b8460200151856040015161442d565b6040805160e0810182526000546001600160a01b0381168252600160a01b8104600290810b810b900b602080840182905261ffff600160b81b8404811685870152600160c81b84048116606080870191909152600160d81b8504909116608086015260ff600160e81b8504811660a0870152600160f01b909404909316151560c0850152885190890151948901519289015193946140bf9491939092909190614b32565b93508460600151600f0b60001461423457846020015160020b816020015160020b12156141145761410d6140f68660200151612e5c565b6141038760400151612e5c565b8760600151614ce7565b9250614234565b846040015160020b816020015160020b121561420a5760045460408201516001600160801b03909116906141669061414a612d16565b6020850151606086015160808701516008949392918791613a93565b6000805461ffff60c81b1916600160c81b61ffff938416021761ffff60b81b1916600160b81b9390921692909202179055815160408701516141b691906141ac90612e5c565b8860600151614ce7565b93506141d46141c88760200151612e5c565b83516060890151614d2b565b92506141e48187606001516136f1565b600480546001600160801b0319166001600160801b039290921691909117905550614234565b61423161421a8660200151612e5c565b6142278760400151612e5c565b8760600151614d2b565b91505b509193909250565b60006142498484846133f5565b90506000828061425557fe5b848609111561349e57600019811061426c57600080fd5b6001019392505050565b6040805160609490941b6001600160601b031916602080860191909152600293840b60e890811b60348701529290930b90911b60378401528051808403601a018152603a90930181528251928201929092206000908152929052902090565b60608060008361ffff1611614315576040805162461bcd60e51b81526020600482015260016024820152604960f81b604482015290519081900360640190fd5b86516001600160401b038111801561432c57600080fd5b50604051908082528060200260200182016040528015614356578160200160208202803683370190505b50915086516001600160401b038111801561437057600080fd5b5060405190808252806020026020018201604052801561439a578160200160208202803683370190505b50905060005b8751811015614420576143cb8a8a8a84815181106143ba57fe5b60200260200101518a8a8a8a6134a5565b8483815181106143d757fe5b602002602001018484815181106143ea57fe5b60200260200101826001600160a01b03166001600160a01b03168152508260060b60060b815250505080806001019150506143a0565b5097509795505050505050565b8060020b8260020b1261446d576040805162461bcd60e51b8152602060048201526003602482015262544c5560e81b604482015290519081900360640190fd5b620d89e719600283900b12156144b0576040805162461bcd60e51b8152602060048201526003602482015262544c4d60e81b604482015290519081900360640190fd5b620d89e8600282900b13156144f2576040805162461bcd60e51b815260206004820152600360248201526254554d60e81b604482015290519081900360640190fd5b5050565b6040805160808101825263ffffffff9283168082526000602083018190529282019290925260016060909101819052835463ffffffff1916909117909116600160f81b17909155908190565b60020b600881901d9161010090910790565b600080821161456257600080fd5b600160801b821061457557608091821c91015b600160401b821061458857604091821c91015b600160201b821061459b57602091821c91015b6201000082106145ad57601091821c91015b61010082106145be57600891821c91015b601082106145ce57600491821c91015b600482106145de57600291821c91015b60028210612cda57600101919050565b60008082116145fc57600080fd5b5060ff6001600160801b0382161561461757607f190161461f565b608082901c91505b6001600160401b0382161561463757603f190161463f565b604082901c91505b63ffffffff82161561465457601f190161465c565b602082901c91505b61ffff82161561466f57600f1901614677565b601082901c91505b60ff8216156146895760071901614691565b600882901c91505b600f8216156146a357600319016146ab565b600482901c91505b60038216156146bd57600119016146c5565b600282901c91505b6001821615612cda5760001901919050565b6000836001600160a01b0316856001600160a01b031611156146f7579293925b816147245761471f836001600160801b03168686036001600160a01b0316600160601b6133f5565b614747565b614747836001600160801b03168686036001600160a01b0316600160601b61423c565b90505b949350505050565b6000836001600160a01b0316856001600160a01b03161115614772579293925b600160601b600160e01b03606084901b166001600160a01b03868603811690871661479c57600080fd5b836147cc57866001600160a01b03166147bf8383896001600160a01b03166133f5565b816147c657fe5b046147f2565b6147f26147e38383896001600160a01b031661423c565b886001600160a01b0316614d5a565b979650505050505050565b600080856001600160a01b03161161481457600080fd5b6000846001600160801b03161161482a57600080fd5b8161483c5761471f8585856001614d65565b6147478585856001614e46565b600080856001600160a01b03161161486057600080fd5b6000846001600160801b03161161487657600080fd5b816148885761471f8585856000614e46565b6147478585856000614d65565b61489d615666565b600085600001518503905060405180608001604052808663ffffffff1681526020018263ffffffff168660020b0288602001510160060b81526020016000856001600160801b0316116148f15760016148f3565b845b6001600160801b031663ffffffff60801b608085901b168161491157fe5b048860400151016001600160a01b0316815260200160011515815250915050949350505050565b614940615666565b614948615666565b888561ffff1661ffff811061495957fe5b60408051608081018252919092015463ffffffff8116808352600160201b8204600690810b810b900b6020840152600160581b82046001600160a01b031693830193909352600160f81b900460ff161515606082015292506149bd90899089614f29565b156149f5578663ffffffff16826000015163ffffffff1614156149df5761362b565b816149ec83898988614895565b9150915061362b565b888361ffff168660010161ffff1681614a0a57fe5b0661ffff1661ffff8110614a1a57fe5b60408051608081018252929091015463ffffffff81168352600160201b8104600690810b810b900b60208401526001600160a01b03600160581b8204169183019190915260ff600160f81b90910416151560608201819052909250614acf57604080516080810182528a5463ffffffff81168252600160201b8104600690810b810b900b6020830152600160581b81046001600160a01b031692820192909252600160f81b90910460ff161515606082015291505b614ade88836000015189614f29565b614b15576040805162461bcd60e51b815260206004820152600360248201526213d31160ea1b604482015290519081900360640190fd5b614b228989898887614fea565b9150915097509795505050505050565b6000614b416007878787614276565b60015460025491925090600080600f87900b15614c87576000614b62612d16565b6000805460045492935090918291614bac9160089186918591600160a01b810460020b9161ffff600160b81b83048116926001600160801b0390921691600160c81b9004166134a5565b9092509050614be660058d8b8d8b8b87898b60007f0000000000000000000000000000000000000000000000000000000000000000615188565b9450614c1d60058c8b8d8b8b87898b60017f0000000000000000000000000000000000000000000000000000000000000000615188565b93508415614c5157614c5160068d7f0000000000000000000000000000000000000000000000000000000000000000615341565b8315614c8357614c8360068c7f0000000000000000000000000000000000000000000000000000000000000000615341565b5050505b600080614c9960058c8c8b8a8a6153a7565b9092509050614caa878a8484615453565b600089600f0b1215614cd8578315614cc757614cc760058c6155e8565b8215614cd857614cd860058b6155e8565b50505050505095945050505050565b60008082600f0b12614d0d57614d08614d038585856001614752565b6133ad565b61474a565b614d20614d038585856000036000614752565b600003949350505050565b60008082600f0b12614d4757614d08614d0385858560016146d7565b614d20614d0385858560000360006146d7565b808204910615150190565b60008115614dd85760006001600160a01b03841115614d9b57614d9684600160601b876001600160801b03166133f5565b614db3565b6001600160801b038516606085901b81614db157fe5b045b9050614dd0614dcb6001600160a01b03881683613ea0565b615614565b91505061474a565b60006001600160a01b03841115614e0657614e0184600160601b876001600160801b031661423c565b614e1d565b614e1d606085901b6001600160801b038716614d5a565b905080866001600160a01b031611614e3457600080fd5b6001600160a01b03861603905061474a565b600082614e5457508361474a565b600160601b600160e01b03606085901b168215614ee2576001600160a01b03861684810290858281614e8257fe5b041415614eb357818101828110614eb157614ea783896001600160a01b03168361423c565b935050505061474a565b505b614ed982614ed4878a6001600160a01b03168681614ecd57fe5b0490613ea0565b614d5a565b9250505061474a565b6001600160a01b03861684810290858281614ef957fe5b04148015614f0657508082115b614f0f57600080fd5b808203614ea7614dcb846001600160a01b038b168461423c565b60008363ffffffff168363ffffffff1611158015614f5357508363ffffffff168263ffffffff1611155b15614f6f578163ffffffff168363ffffffff161115905061349e565b60008463ffffffff168463ffffffff1611614f96578363ffffffff16600160201b01614f9e565b8363ffffffff165b64ffffffffff16905060008563ffffffff168463ffffffff1611614fce578363ffffffff16600160201b01614fd6565b8363ffffffff165b64ffffffffff169091111595945050505050565b614ff2615666565b614ffa615666565b60008361ffff168560010161ffff168161501057fe5b0661ffff169050600060018561ffff16830103905060005b506002818301048961ffff8716828161503d57fe5b0661ffff811061504957fe5b60408051608081018252929091015463ffffffff81168352600160201b8104600690810b810b900b60208401526001600160a01b03600160581b8204169183019190915260ff600160f81b909104161515606082018190529095506150b357806001019250615028565b898661ffff1682600101816150c457fe5b0661ffff81106150d057fe5b60408051608081018252929091015463ffffffff81168352600160201b8104600690810b810b900b60208401526001600160a01b03600160581b8204169183019190915260ff600160f81b9091041615156060820152855190945060009061513a908b908b614f29565b905080801561515357506151538a8a8760000151614f29565b1561515e575061517b565b8061516e57600182039250615175565b8160010193505b50615028565b5050509550959350505050565b60028a810b900b600090815260208c90526040812080546001600160801b0316826151b3828d6136f1565b9050846001600160801b0316816001600160801b03161115615201576040805162461bcd60e51b81526020600482015260026024820152614c4f60f01b604482015290519081900360640190fd5b6001600160801b0382811615908216158114159450156152a6578c60020b8e60020b1361528e57600183018b9055600283018a9055600383018054600160381b600160d81b031916600160381b6001600160a01b038c16021766ffffffffffffff191666ffffffffffffff60068b900b161763ffffffff60d81b1916600160d81b63ffffffff8a16021790555b6003830180546001600160f81b0316600160f81b1790555b82546001600160801b0319166001600160801b038216178355856152ef5782546152ea906152e590600160801b9004600f90810b810b908f900b6133df565b613feb565b615310565b8254615310906152e590600160801b9004600f90810b810b908f900b6133c3565b8354600f9190910b6001600160801b03908116600160801b0291161790925550909c9b505050505050505050505050565b8060020b8260020b8161535057fe5b0760020b1561535e57600080fd5b6000806153798360020b8560020b8161537357fe5b05614542565b600191820b820b60009081526020979097526040909620805460ff9097169190911b90951890945550505050565b600285810b80820b60009081526020899052604080822088850b850b83529082209193849391929184918291908a900b126153ed57505060018201546002830154615400565b8360010154880391508360020154870390505b6000808b60020b8b60020b121561542257505060018301546002840154615435565b84600101548a0391508460020154890390505b92909803979097039b96909503949094039850939650505050505050565b6040805160a08101825285546001600160801b0390811682526001870154602083015260028701549282019290925260038601548083166060830152600160801b900490911660808201526000600f85900b6154f25781516001600160801b03166154ea576040805162461bcd60e51b815260206004820152600260248201526104e560f41b604482015290519081900360640190fd5b508051615501565b81516154fe90866136f1565b90505b60006155258360200151860384600001516001600160801b0316600160801b6133f5565b9050600061554b8460400151860385600001516001600160801b0316600160801b6133f5565b905086600f0b6000146155725787546001600160801b0319166001600160801b0384161788555b60018801869055600288018590556001600160801b0382161515806155a057506000816001600160801b0316115b156155de576003880180546001600160801b031981166001600160801b039182168501821617808216600160801b9182900483168501909216021790555b5050505050505050565b600290810b810b6000908152602092909252604082208281556001810183905590810182905560030155565b806001600160a01b0381168114612cda57600080fd5b6040805160e081018252600080825260208201819052918101829052606081018290526080810182905260a0810182905260c081019190915290565b6040805160808101825260008082526020820181905291810182905260608101919091529056fea2646970667358221220734923951bf975bcf30ca763fdf422df5388e62ed94c50612cd4741197bedf0164736f6c63430007060033a26469706673582212206eeed58151464ac205c11fea9165064329f1d5bccc96035826de576430831bb264736f6c63430007060033",
  "linkReferences": {},
  "deployedLinkReferences": {}
}