{
  "_format": "hh-sol-artifact-1",
  "contractName": "SlerfSwapV3Factory",
  "sourceName": "contracts/SlerfSwapV3Factory.sol",
  "abi": [
    {
      "inputs": [
        {
          "internalType": "address",
          "name": "_poolDeployer",
          "type": "address"
        }
      ],
      "stateMutability": "nonpayable",
      "type": "constructor"
    },
    {
      "anonymous": false,
      "inputs": [
        {
          "indexed": true,
          "internalType": "uint24",
          "name": "fee",
          "type": "uint24"
        },
        {
          "indexed": true,
          "internalType": "int24",
          "name": "tickSpacing",
          "type": "int24"
        }
      ],
      "name": "FeeAmountEnabled",
      "type": "event"
    },
    {
      "anonymous": false,
      "inputs": [
        {
          "indexed": true,
          "internalType": "address",
          "name": "oldOwner",
          "type": "address"
        },
        {
          "indexed": true,
          "internalType": "address",
          "name": "newOwner",
          "type": "address"
        }
      ],
      "name": "OwnerChanged",
      "type": "event"
    },
    {
      "anonymous": false,
      "inputs": [
        {
          "indexed": true,
          "internalType": "address",
          "name": "token0",
          "type": "address"
        },
        {
          "indexed": true,
          "internalType": "address",
          "name": "token1",
          "type": "address"
        },
        {
          "indexed": true,
          "internalType": "uint24",
          "name": "fee",
          "type": "uint24"
        },
        {
          "indexed": false,
          "internalType": "int24",
          "name": "tickSpacing",
          "type": "int24"
        },
        {
          "indexed": false,
          "internalType": "address",
          "name": "pool",
          "type": "address"
        }
      ],
      "name": "PoolCreated",
      "type": "event"
    },
    {
      "anonymous": false,
      "inputs": [
        {
          "indexed": true,
          "internalType": "address",
          "name": "pool",
          "type": "address"
        },
        {
          "indexed": true,
          "internalType": "address",
          "name": "token0",
          "type": "address"
        },
        {
          "indexed": true,
          "internalType": "address",
          "name": "token1",
          "type": "address"
        },
        {
          "indexed": false,
          "internalType": "uint24",
          "name": "fee",
          "type": "uint24"
        },
        {
          "indexed": false,
          "internalType": "uint8",
          "name": "pct",
          "type": "uint8"
        }
      ],
      "name": "ProtocolFeeAutoEnabled",
      "type": "event"
    },
    {
      "inputs": [
        {
          "internalType": "address",
          "name": "tokenA",
          "type": "address"
        },
        {
          "internalType": "address",
          "name": "tokenB",
          "type": "address"
        },
        {
          "internalType": "uint24",
          "name": "fee",
          "type": "uint24"
        }
      ],
      "name": "createPool",
      "outputs": [
        {
          "internalType": "address",
          "name": "pool",
          "type": "address"
        }
      ],
      "stateMutability": "nonpayable",
      "type": "function"
    },
    {
      "inputs": [
        {
          "internalType": "uint24",
          "name": "fee",
          "type": "uint24"
        },
        {
          "internalType": "int24",
          "name": "tickSpacing",
          "type": "int24"
        }
      ],
      "name": "enableFeeAmount",
      "outputs": [],
      "stateMutability": "nonpayable",
      "type": "function"
    },
    {
      "inputs": [
        {
          "internalType": "uint24",
          "name": "",
          "type": "uint24"
        }
      ],
      "name": "feeAmountTickSpacing",
      "outputs": [
        {
          "internalType": "int24",
          "name": "",
          "type": "int24"
        }
      ],
      "stateMutability": "view",
      "type": "function"
    },
    {
      "inputs": [
        {
          "internalType": "address",
          "name": "",
          "type": "address"
        },
        {
          "internalType": "address",
          "name": "",
          "type": "address"
        },
        {
          "internalType": "uint24",
          "name": "",
          "type": "uint24"
        }
      ],
      "name": "getPool",
      "outputs": [
        {
          "internalType": "address",
          "name": "",
          "type": "address"
        }
      ],
      "stateMutability": "view",
      "type": "function"
    },
    {
      "inputs": [],
      "name": "owner",
      "outputs": [
        {
          "internalType": "address",
          "name": "",
          "type": "address"
        }
      ],
      "stateMutability": "view",
      "type": "function"
    },
    {
      "inputs": [],
      "name": "poolDeployer",
      "outputs": [
        {
          "internalType": "address",
          "name": "",
          "type": "address"
        }
      ],
      "stateMutability": "view",
      "type": "function"
    },
    {
      "inputs": [
        {
          "internalType": "address",
          "name": "_owner",
          "type": "address"
        }
      ],
      "name": "setOwner",
      "outputs": [],
      "stateMutability": "nonpayable",
      "type": "function"
    },
    {
      "inputs": [
        {
          "internalType": "address",
          "name": "token0",
          "type": "address"
        },
        {
          "internalType": "address",
          "name": "token1",
          "type": "address"
        },
        {
          "internalType": "uint24",
          "name": "fee",
          "type": "uint24"
        }
      ],
      "name": "setPoolProtocolFee",
      "outputs": [],
      "stateMutability": "nonpayable",
      "type": "function"
    }
  ],
  "bytecode": "0x60c060405234801561001057600080fd5b50604051610a95380380610a958339818101604052602081101561003357600080fd5b505130606090811b60805260008054336001600160a01b0319909116811782559183901b6001600160601b03191660a0526040517fb532073b38c83145e3e5135377a08bf9aab55bc0fd7c1179cd4fb995d2a5159c908290a35060805160601c60a05160601c6109da6100bb6000398061040a52806107cb52508061097852506109da6000f3fe608060405234801561001057600080fd5b50600436106100785760003560e01c806313af40351461007d5780631698ee82146100a55780631ba56b94146100fd57806322afcccb146101395780633119049a146101725780638a7c195f1461017a5780638da5cb5b146101a5578063a1671295146101ad575b600080fd5b6100a36004803603602081101561009357600080fd5b50356001600160a01b03166101e9565b005b6100e1600480360360608110156100bb57600080fd5b5080356001600160a01b03908116916020810135909116906040013562ffffff1661028f565b604080516001600160a01b039092168252519081900360200190f35b6100a36004803603606081101561011357600080fd5b5080356001600160a01b03908116916020810135909116906040013562ffffff166102bb565b61015b6004803603602081101561014f57600080fd5b503562ffffff166103f3565b6040805160029290920b8252519081900360200190f35b6100e1610408565b6100a36004803603604081101561019057600080fd5b5062ffffff813516906020013560020b61042c565b6100e16105d3565b6100e1600480360360608110156101c357600080fd5b5080356001600160a01b03908116916020810135909116906040013562ffffff166105e2565b6000546001600160a01b03163314610234576040805162461bcd60e51b81526020600482015260096024820152683737ba1037bbb732b960b91b604482015290519081900360640190fd5b600080546040516001600160a01b03808516939216917fb532073b38c83145e3e5135377a08bf9aab55bc0fd7c1179cd4fb995d2a5159c91a3600080546001600160a01b0319166001600160a01b0392909216919091179055565b60026020908152600093845260408085208252928452828420905282529020546001600160a01b031681565b6000546001600160a01b03163314610306576040805162461bcd60e51b81526020600482015260096024820152683737ba1037bbb732b960b91b604482015290519081900360640190fd5b6001600160a01b0380841660009081526002602090815260408083208685168452825280832062ffffff86168452909152902054168061037e576040805162461bcd60e51b815260206004820152600e60248201526d1c1bdbdb081b9bdd08199bdd5b9960921b604482015290519081900360640190fd5b62ffffff8216156103ed57826001600160a01b0316846001600160a01b0316826001600160a01b03167f40101ff0dcbedeff97f3186e85e75ff3f717f682c164d7dba3a1e1eb2c90f78485601e604051808362ffffff1681526020018281526020019250505060405180910390a45b50505050565b60016020526000908152604090205460020b81565b7f000000000000000000000000000000000000000000000000000000000000000081565b6000546001600160a01b03163314610477576040805162461bcd60e51b81526020600482015260096024820152683737ba1037bbb732b960b91b604482015290519081900360640190fd5b620f42408262ffffff16106104c3576040805162461bcd60e51b815260206004820152600d60248201526c66656520746f6f206c6172676560981b604482015290519081900360640190fd5b60008160020b1380156104da57506140008160020b125b61051d576040805162461bcd60e51b815260206004820152600f60248201526e696e76616c69642073706163696e6760881b604482015290519081900360640190fd5b62ffffff8216600090815260016020526040902054600290810b900b15610581576040805162461bcd60e51b81526020600482015260136024820152721999594b585b1c9958591e4b595b98589b1959606a1b604482015290519081900360640190fd5b62ffffff828116600081815260016020526040808220805462ffffff1916600287900b958616179055517fc66a3fdf07232cdd185febcc6579d408c241b47ae2f9907d84be655141eeaecc9190a35050565b6000546001600160a01b031681565b60006105ec61096d565b826001600160a01b0316846001600160a01b03161415610640576040805162461bcd60e51b815260206004820152600a60248201526939b0b6b2903a37b5b2b760b11b604482015290519081900360640190fd5b600080846001600160a01b0316866001600160a01b031610610663578486610666565b85855b90925090506001600160a01b0382166106b3576040805162461bcd60e51b815260206004820152600a6024820152693d32b937903a37b5b2b760b11b604482015290519081900360640190fd5b62ffffff8416600090815260016020526040902054600290810b9081900b610711576040805162461bcd60e51b815260206004820152600c60248201526b19995948191a5cd8589b195960a21b604482015290519081900360640190fd5b6001600160a01b0383811660009081526002602090815260408083208685168452825280832062ffffff8a1684529091529020541615610786576040805162461bcd60e51b815260206004820152600b60248201526a706f6f6c2065786973747360a81b604482015290519081900360640190fd5b60408051631631833f60e01b81523060048201526001600160a01b038581166024830152848116604483015262ffffff88166064830152600284900b608483015291517f000000000000000000000000000000000000000000000000000000000000000090921691631631833f9160a4808201926020929091908290030181600087803b15801561081657600080fd5b505af115801561082a573d6000803e3d6000fd5b505050506040513d602081101561084057600080fd5b50516001600160a01b03808516600081815260026020818152604080842089871680865290835281852062ffffff8e168087529084528286208054988a166001600160a01b0319998a16811790915582875285855283872088885285528387208288528552958390208054909816861790975581519389900b845291830193909352825195995093947f783cca1c0412dd0d695e784568c96da2e9c22ff989357a2e8b1d9b2b4e6b7118929181900390910190a462ffffff85161561096357816001600160a01b0316836001600160a01b0316856001600160a01b03167f40101ff0dcbedeff97f3186e85e75ff3f717f682c164d7dba3a1e1eb2c90f78488601e604051808362ffffff1681526020018281526020019250505060405180910390a45b5050509392505050565b306001600160a01b037f000000000000000000000000000000000000000000000000000000000000000016146109a257600080fd5b56fea264697066735822122098d4a0dadbd68522d20241c58c9fba19a5c995eb33b80405f9e732e99095a7c964736f6c63430007060033",
  "linkReferences": {},
  "deployedLinkReferences": {}
}