{
  "_format": "hh-sol-artifact-1",
  "contractName": "QuoterV2",
  "sourceName": "contracts/lens/QuoterV2.sol",
  "abi": [
    {
      "inputs": [
        {
          "internalType": "address",
          "name": "_factory",
          "type": "address"
        },
        {
          "internalType": "address",
          "name": "_WETH9",
          "type": "address"
        }
      ],
      "stateMutability": "nonpayable",
      "type": "constructor"
    },
    {
      "inputs": [],
      "name": "WETH9",
      "outputs": [
        {
          "internalType": "address",
          "name": "",
          "type": "address"
        }
      ],
      "stateMutability": "view",
      "type": "function"
    },
    {
      "inputs": [],
      "name": "factory",
      "outputs": [
        {
          "internalType": "address",
          "name": "",
          "type": "address"
        }
      ],
      "stateMutability": "view",
      "type": "function"
    },
    {
      "inputs": [
        {
          "internalType": "bytes",
          "name": "path",
          "type": "bytes"
        },
        {
          "internalType": "uint256",
          "name": "amountIn",
          "type": "uint256"
        }
      ],
      "name": "quoteExactInput",
      "outputs": [
        {
          "internalType": "uint256",
          "name": "amountOut",
          "type": "uint256"
        },
        {
          "internalType": "uint160[]",
          "name": "sqrtPriceX96AfterList",
          "type": "uint160[]"
        },
        {
          "internalType": "uint32[]",
          "name": "initializedTicksCrossedList",
          "type": "uint32[]"
        },
        {
          "internalType": "uint256",
          "name": "gasEstimate",
          "type": "uint256"
        }
      ],
      "stateMutability": "nonpayable",
      "type": "function"
    },
    {
      "inputs": [
        {
          "components": [
            {
              "internalType": "address",
              "name": "tokenIn",
              "type": "address"
            },
            {
              "internalType": "address",
              "name": "tokenOut",
              "type": "address"
            },
            {
              "internalType": "uint256",
              "name": "amountIn",
              "type": "uint256"
            },
            {
              "internalType": "uint24",
              "name": "fee",
              "type": "uint24"
            },
            {
              "internalType": "uint160",
              "name": "sqrtPriceLimitX96",
              "type": "uint160"
            }
          ],
          "internalType": "struct IQuoterV2.QuoteExactInputSingleParams",
          "name": "params",
          "type": "tuple"
        }
      ],
      "name": "quoteExactInputSingle",
      "outputs": [
        {
          "internalType": "uint256",
          "name": "amountOut",
          "type": "uint256"
        },
        {
          "internalType": "uint160",
          "name": "sqrtPriceX96After",
          "type": "uint160"
        },
        {
          "internalType": "uint32",
          "name": "initializedTicksCrossed",
          "type": "uint32"
        },
        {
          "internalType": "uint256",
          "name": "gasEstimate",
          "type": "uint256"
        }
      ],
      "stateMutability": "nonpayable",
      "type": "function"
    },
    {
      "inputs": [
        {
          "internalType": "bytes",
          "name": "path",
          "type": "bytes"
        },
        {
          "internalType": "uint256",
          "name": "amountOut",
          "type": "uint256"
        }
      ],
      "name": "quoteExactOutput",
      "outputs": [
        {
          "internalType": "uint256",
          "name": "amountIn",
          "type": "uint256"
        },
        {
          "internalType": "uint160[]",
          "name": "sqrtPriceX96AfterList",
          "type": "uint160[]"
        },
        {
          "internalType": "uint32[]",
          "name": "initializedTicksCrossedList",
          "type": "uint32[]"
        },
        {
          "internalType": "uint256",
          "name": "gasEstimate",
          "type": "uint256"
        }
      ],
      "stateMutability": "nonpayable",
      "type": "function"
    },
    {
      "inputs": [
        {
          "components": [
            {
              "internalType": "address",
              "name": "tokenIn",
              "type": "address"
            },
            {
              "internalType": "address",
              "name": "tokenOut",
              "type": "address"
            },
            {
              "internalType": "uint256",
              "name": "amount",
              "type": "uint256"
            },
            {
              "internalType": "uint24",
              "name": "fee",
              "type": "uint24"
            },
            {
              "internalType": "uint160",
              "name": "sqrtPriceLimitX96",
              "type": "uint160"
            }
          ],
          "internalType": "struct IQuoterV2.QuoteExactOutputSingleParams",
          "name": "params",
          "type": "tuple"
        }
      ],
      "name": "quoteExactOutputSingle",
      "outputs": [
        {
          "internalType": "uint256",
          "name": "amountIn",
          "type": "uint256"
        },
        {
          "internalType": "uint160",
          "name": "sqrtPriceX96After",
          "type": "uint160"
        },
        {
          "internalType": "uint32",
          "name": "initializedTicksCrossed",
          "type": "uint32"
        },
        {
          "internalType": "uint256",
          "name": "gasEstimate",
          "type": "uint256"
        }
      ],
      "stateMutability": "nonpayable",
      "type": "function"
    },
    {
      "inputs": [
        {
          "internalType": "int256",
          "name": "amount0Delta",
          "type": "int256"
        },
        {
          "internalType": "int256",
          "name": "amount1Delta",
          "type": "int256"
        },
        {
          "internalType": "bytes",
          "name": "path",
          "type": "bytes"
        }
      ],
      "name": "uniswapV3SwapCallback",
      "outputs": [],
      "stateMutability": "view",
      "type": "function"
    }
  ],
  "bytecode": "0x60c06040523480156200001157600080fd5b5060405162001c5c38038062001c5c833981016040819052620000349162000070565b6001600160601b0319606092831b8116608052911b1660a052620000a7565b80516001600160a01b03811681146200006b57600080fd5b919050565b6000806040838503121562000083578182fd5b6200008e8362000053565b91506200009e6020840162000053565b90509250929050565b60805160601c60a05160601c611b81620000db600039806102ce5250806104c5528061082352806109db5250611b816000f3fe608060405234801561001057600080fd5b506004361061006d5760003560e01c80632f80bb1d146100725780634aa4a4fc1461009e578063bd21704a146100b3578063c45a0155146100d6578063c6a5026a146100de578063cdca1753146100f1578063fa461e3314610104575b600080fd5b6100856100803660046116f0565b610119565b60405161009594939291906119fa565b60405180910390f35b6100a66102cc565b6040516100959190611963565b6100c66100c136600461180b565b6102f0565b6040516100959493929190611a95565b6100a66104c3565b6100c66100ec36600461180b565b6104e7565b6100856100ff3660046116f0565b61065d565b610117610112366004611755565b6107f2565b005b600060608060006101298661096d565b6001600160401b038111801561013e57600080fd5b50604051908082528060200260200182016040528015610168578160200160208202803683370190505b5092506101748661096d565b6001600160401b038111801561018957600080fd5b506040519080825280602002602001820160405280156101b3578160200160208202803683370190505b50915060005b60008060006101c78a61097e565b9250925092506000806000806102236040518060a00160405280886001600160a01b03168152602001896001600160a01b031681526020018f81526020018762ffffff16815260200160006001600160a01b03168152506102f0565b9350935093509350828b898151811061023857fe5b60200260200101906001600160a01b031690816001600160a01b031681525050818a898151811061026557fe5b63ffffffff90921660209283029190910190910152929b50968201966001909601958b926102928e6109af565b156102a7576102a08e6109b7565b9d506102b7565b8c9b5050505050505050506102c3565b505050505050506101b9565b92959194509250565b7f000000000000000000000000000000000000000000000000000000000000000081565b6020810151815160608301516000928392839283926001600160a01b038082169084161092849261032192906109d4565b905086608001516001600160a01b0316600014156103425760408701516000555b60005a9050816001600160a01b031663128acb0830856103658c60400151610a12565b6000038c608001516001600160a01b0316600014610387578c608001516103ad565b876103a65773fffd8963efd1fc6a506488495d951d5263988d256103ad565b6401000276a45b8d602001518e606001518f600001516040516020016103ce9392919061192d565b6040516020818303038152906040526040518663ffffffff1660e01b81526004016103fd959493929190611977565b6040805180830381600087803b15801561041657600080fd5b505af1925050508015610446575060408051601f3d908101601f1916820190925261044391810190611732565b60015b6104b6573d808015610474576040519150601f19603f3d011682016040523d82523d6000602084013e610479565b606091505b505a8203945088608001516001600160a01b03166000141561049a57600080555b6104a5818487610a28565b9750975097509750505050506104bc565b50505050505b9193509193565b7f000000000000000000000000000000000000000000000000000000000000000081565b6020810151815160608301516000928392839283926001600160a01b038082169084161092849261051892906109d4565b905060005a9050816001600160a01b031663128acb08308561053d8c60400151610a12565b60808d01516001600160a01b03161561055a578c60800151610580565b876105795773fffd8963efd1fc6a506488495d951d5263988d25610580565b6401000276a45b8d600001518e606001518f602001516040516020016105a19392919061192d565b6040516020818303038152906040526040518663ffffffff1660e01b81526004016105d0959493929190611977565b6040805180830381600087803b1580156105e957600080fd5b505af1925050508015610619575060408051601f3d908101601f1916820190925261061691810190611732565b60015b6104b6573d808015610647576040519150601f19603f3d011682016040523d82523d6000602084013e61064c565b606091505b505a820394506104a5818487610a28565b6000606080600061066d8661096d565b6001600160401b038111801561068257600080fd5b506040519080825280602002602001820160405280156106ac578160200160208202803683370190505b5092506106b88661096d565b6001600160401b03811180156106cd57600080fd5b506040519080825280602002602001820160405280156106f7578160200160208202803683370190505b50915060005b600080600061070b8a61097e565b9250925092506000806000806107676040518060a00160405280896001600160a01b03168152602001886001600160a01b031681526020018f81526020018762ffffff16815260200160006001600160a01b03168152506104e7565b9350935093509350828b898151811061077c57fe5b60200260200101906001600160a01b031690816001600160a01b031681525050818a89815181106107a957fe5b63ffffffff90921660209283029190910190910152929b50968201966001909601958b926107d68e6109af565b156102a7576107e48e6109b7565b9d50505050505050506106fd565b60008313806108015750600082135b61080a57600080fd5b60008060006108188461097e565b92509250925061084a7f0000000000000000000000000000000000000000000000000000000000000000848484610ae2565b50600080600080891361087657856001600160a01b0316856001600160a01b031610888a600003610891565b846001600160a01b0316866001600160a01b03161089896000035b92509250925060006108a48787876109d4565b9050600080826001600160a01b0316633850c7bd6040518163ffffffff1660e01b815260040160e06040518083038186803b1580156108e257600080fd5b505afa1580156108f6573d6000803e3d6000fd5b505050506040513d601f19601f8201168201806040525081019061091a919061182d565b505050505091509150851561094057604051848152826020820152816040820152606081fd5b6000541561095657600054841461095657600080fd5b604051858152826020820152816040820152606081fd5b80516017601319909101045b919050565b6000808061098c8482610b01565b9250610999846014610bb1565b90506109a6846017610b01565b91509193909250565b516042111590565b80516060906109ce90839060179060161901610c58565b92915050565b6000610a0a7f0000000000000000000000000000000000000000000000000000000000000000610a05868686610da9565b610eab565b949350505050565b6000600160ff1b8210610a2457600080fd5b5090565b600080600080600080876001600160a01b0316633850c7bd6040518163ffffffff1660e01b815260040160e06040518083038186803b158015610a6a57600080fd5b505afa158015610a7e573d6000803e3d6000fd5b505050506040513d601f19601f82011682018060405250810190610aa2919061182d565b50939650610ab794508d9350610f6c92505050565b91975095509050610ad26001600160a01b0389168383610ff9565b9350869250505093509350935093565b6000610af885610af3868686610da9565b611582565b95945050505050565b600081826014011015610b50576040805162461bcd60e51b8152602060048201526012602482015271746f416464726573735f6f766572666c6f7760701b604482015290519081900360640190fd5b8160140183511015610ba1576040805162461bcd60e51b8152602060048201526015602482015274746f416464726573735f6f75744f66426f756e647360581b604482015290519081900360640190fd5b500160200151600160601b900490565b600081826003011015610bff576040805162461bcd60e51b8152602060048201526011602482015270746f55696e7432345f6f766572666c6f7760781b604482015290519081900360640190fd5b8160030183511015610c4f576040805162461bcd60e51b8152602060048201526014602482015273746f55696e7432345f6f75744f66426f756e647360601b604482015290519081900360640190fd5b50016003015190565b60608182601f011015610ca3576040805162461bcd60e51b815260206004820152600e60248201526d736c6963655f6f766572666c6f7760901b604482015290519081900360640190fd5b828284011015610ceb576040805162461bcd60e51b815260206004820152600e60248201526d736c6963655f6f766572666c6f7760901b604482015290519081900360640190fd5b81830184511015610d37576040805162461bcd60e51b8152602060048201526011602482015270736c6963655f6f75744f66426f756e647360781b604482015290519081900360640190fd5b606082158015610d565760405191506000825260208201604052610da0565b6040519150601f8416801560200281840101858101878315602002848b0101015b81831015610d8f578051835260209283019201610d77565b5050858452601f01601f1916604052505b50949350505050565b610db16115c0565b826001600160a01b0316846001600160a01b03161415610e08576040805162461bcd60e51b815260206004820152600d60248201526c14104e8812511153951250d053609a1b604482015290519081900360640190fd5b600080846001600160a01b0316866001600160a01b031610610e2b578486610e2e565b85855b90925090506001600160a01b038216610e79576040805162461bcd60e51b815260206004820152600860248201526750413a205a45524f60c01b604482015290519081900360640190fd5b604080516060810182526001600160a01b03938416815291909216602082015262ffffff909316908301525092915050565b805160208083015160409384015184516001600160a01b0394851681850152939091168385015262ffffff16606080840191909152835180840390910181526080830184528051908201206001600160f81b031960a0840152737426f5fc3abb2286a7848bf1387458d7ae7ce9c960601b60a184015260b58301527f0ae75198b494ad1f1b0510036c21aad5e3f8647d8260c8e1b941c3b1101573ed60d5808401919091528351808403909101815260f59092019092528051910120919050565b60008060008351606014610fd857604484511015610fa55760405162461bcd60e51b8152600401610f9c906119d0565b60405180910390fd5b60048401935083806020019051810190610fbf91906117a2565b60405162461bcd60e51b8152600401610f9c91906119bd565b83806020019051810190610fec91906118c4565b9250925092509193909250565b60008060008060008060008060088b6001600160a01b031663d0c93a7c6040518163ffffffff1660e01b815260040160206040518083038186803b15801561104057600080fd5b505afa158015611054573d6000803e3d6000fd5b505050506040513d602081101561106a57600080fd5b5051600290810b908c900b8161107c57fe5b0560020b901d905060006101008c6001600160a01b031663d0c93a7c6040518163ffffffff1660e01b815260040160206040518083038186803b1580156110c257600080fd5b505afa1580156110d6573d6000803e3d6000fd5b505050506040513d60208110156110ec57600080fd5b5051600290810b908d900b816110fe57fe5b0560020b8161110957fe5b079050600060088d6001600160a01b031663d0c93a7c6040518163ffffffff1660e01b815260040160206040518083038186803b15801561114957600080fd5b505afa15801561115d573d6000803e3d6000fd5b505050506040513d602081101561117357600080fd5b5051600290810b908d900b8161118557fe5b0560020b901d905060006101008e6001600160a01b031663d0c93a7c6040518163ffffffff1660e01b815260040160206040518083038186803b1580156111cb57600080fd5b505afa1580156111df573d6000803e3d6000fd5b505050506040513d60208110156111f557600080fd5b5051600290810b908e900b8161120757fe5b0560020b8161121257fe5b07905060008160ff166001901b8f6001600160a01b0316635339c296856040518263ffffffff1660e01b8152600401808260010b815260200191505060206040518083038186803b15801561126657600080fd5b505afa15801561127a573d6000803e3d6000fd5b505050506040513d602081101561129057600080fd5b50511611801561131657508d6001600160a01b031663d0c93a7c6040518163ffffffff1660e01b815260040160206040518083038186803b1580156112d457600080fd5b505afa1580156112e8573d6000803e3d6000fd5b505050506040513d60208110156112fe57600080fd5b5051600290810b908d900b8161131057fe5b0760020b155b801561132757508b60020b8d60020b135b945060008360ff166001901b8f6001600160a01b0316635339c296876040518263ffffffff1660e01b8152600401808260010b815260200191505060206040518083038186803b15801561137a57600080fd5b505afa15801561138e573d6000803e3d6000fd5b505050506040513d60208110156113a457600080fd5b50511611801561142a57508d6001600160a01b031663d0c93a7c6040518163ffffffff1660e01b815260040160206040518083038186803b1580156113e857600080fd5b505afa1580156113fc573d6000803e3d6000fd5b505050506040513d602081101561141257600080fd5b5051600290810b908e900b8161142457fe5b0760020b155b801561143b57508b60020b8d60020b125b95508160010b8460010b128061146757508160010b8460010b14801561146757508060ff168360ff1611155b1561147d5783995082975081985080965061148a565b8199508097508398508296505b505060001960ff87161b9150505b8560010b8760010b1361155a578560010b8760010b14156114bf5760001960ff858103161c165b6000818c6001600160a01b0316635339c2968a6040518263ffffffff1660e01b8152600401808260010b815260200191505060206040518083038186803b15801561150957600080fd5b505afa15801561151d573d6000803e3d6000fd5b505050506040513d602081101561153357600080fd5b5051169050611541816115a5565b61ffff1698909801975050600190950194600019611498565b8115611567576001880397505b8215611574576001880397505b505050505050509392505050565b600061158e8383610eab565b9050336001600160a01b038216146109ce57600080fd5b6000805b82156109ce576000198301909216916001016115a9565b604080516060810182526000808252602082018190529181019190915290565b600082601f8301126115f0578081fd5b81356116036115fe82611ae2565b611abf565b818152846020838601011115611617578283fd5b816020850160208301379081016020019190915292915050565b8051600281900b811461097957600080fd5b600060a08284031215611654578081fd5b60405160a081018181106001600160401b038211171561167057fe5b604052905080823561168181611b33565b8152602083013561169181611b33565b602082015260408381013590820152606083013562ffffff811681146116b657600080fd5b60608201526116c7608084016116d3565b60808201525092915050565b803561097981611b33565b805161ffff8116811461097957600080fd5b60008060408385031215611702578182fd5b82356001600160401b03811115611717578283fd5b611723858286016115e0565b95602094909401359450505050565b60008060408385031215611744578182fd5b505080516020909101519092909150565b600080600060608486031215611769578081fd5b833592506020840135915060408401356001600160401b0381111561178c578182fd5b611798868287016115e0565b9150509250925092565b6000602082840312156117b3578081fd5b81516001600160401b038111156117c8578182fd5b8201601f810184136117d8578182fd5b80516117e66115fe82611ae2565b8181528560208385010111156117fa578384fd5b610af8826020830160208601611b03565b600060a0828403121561181c578081fd5b6118268383611643565b9392505050565b600080600080600080600060e0888a031215611847578283fd5b875161185281611b33565b965061186060208901611631565b955061186e604089016116de565b945061187c606089016116de565b935061188a608089016116de565b925060a088015160ff8116811461189f578283fd5b60c089015190925080151581146118b4578182fd5b8091505092959891949750929550565b6000806000606084860312156118d8578081fd5b8351925060208401516118ea81611b33565b91506118f860408501611631565b90509250925092565b60008151808452611919816020860160208601611b03565b601f01601f19169290920160200192915050565b606093841b6001600160601b0319908116825260e89390931b6001600160e81b0319166014820152921b166017820152602b0190565b6001600160a01b0391909116815260200190565b6001600160a01b0386811682528515156020830152604082018590528316606082015260a0608082018190526000906119b290830184611901565b979650505050505050565b6000602082526118266020830184611901565b60208082526010908201526f2ab732bc3832b1ba32b21032b93937b960811b604082015260600190565b600060808201868352602060808185015281875180845260a0860191508289019350845b81811015611a435784516001600160a01b031683529383019391830191600101611a1e565b505084810360408601528651808252908201925081870190845b81811015611a7f57825163ffffffff1685529383019391830191600101611a5d565b5050505060609290920192909252949350505050565b9384526001600160a01b0392909216602084015263ffffffff166040830152606082015260800190565b6040518181016001600160401b0381118282101715611ada57fe5b604052919050565b60006001600160401b03821115611af557fe5b50601f01601f191660200190565b60005b83811015611b1e578181015183820152602001611b06565b83811115611b2d576000848401525b50505050565b6001600160a01b0381168114611b4857600080fd5b5056fea2646970667358221220bbcca3c569897b0e6da292f4acd3f287e1f5ccae6dbf4e2617473db58814131864736f6c63430007060033",
  "linkReferences": {},
  "deployedLinkReferences": {}
}