{
  "_format": "hh-sol-artifact-1",
  "contractName": "SwapRouter",
  "sourceName": "contracts/SwapRouter.sol",
  "abi": [
    {
      "inputs": [
        {
          "internalType": "address",
          "name": "_factory",
          "type": "address"
        },
        {
          "internalType": "address",
          "name": "_WETH9",
          "type": "address"
        }
      ],
      "stateMutability": "nonpayable",
      "type": "constructor"
    },
    {
      "inputs": [],
      "name": "WETH9",
      "outputs": [
        {
          "internalType": "address",
          "name": "",
          "type": "address"
        }
      ],
      "stateMutability": "view",
      "type": "function"
    },
    {
      "inputs": [
        {
          "components": [
            {
              "internalType": "bytes",
              "name": "path",
              "type": "bytes"
            },
            {
              "internalType": "address",
              "name": "recipient",
              "type": "address"
            },
            {
              "internalType": "uint256",
              "name": "deadline",
              "type": "uint256"
            },
            {
              "internalType": "uint256",
              "name": "amountIn",
              "type": "uint256"
            },
            {
              "internalType": "uint256",
              "name": "amountOutMinimum",
              "type": "uint256"
            }
          ],
          "internalType": "struct ISwapRouter.ExactInputParams",
          "name": "params",
          "type": "tuple"
        }
      ],
      "name": "exactInput",
      "outputs": [
        {
          "internalType": "uint256",
          "name": "amountOut",
          "type": "uint256"
        }
      ],
      "stateMutability": "payable",
      "type": "function"
    },
    {
      "inputs": [
        {
          "components": [
            {
              "internalType": "address",
              "name": "tokenIn",
              "type": "address"
            },
            {
              "internalType": "address",
              "name": "tokenOut",
              "type": "address"
            },
            {
              "internalType": "uint24",
              "name": "fee",
              "type": "uint24"
            },
            {
              "internalType": "address",
              "name": "recipient",
              "type": "address"
            },
            {
              "internalType": "uint256",
              "name": "deadline",
              "type": "uint256"
            },
            {
              "internalType": "uint256",
              "name": "amountIn",
              "type": "uint256"
            },
            {
              "internalType": "uint256",
              "name": "amountOutMinimum",
              "type": "uint256"
            },
            {
              "internalType": "uint160",
              "name": "sqrtPriceLimitX96",
              "type": "uint160"
            }
          ],
          "internalType": "struct ISwapRouter.ExactInputSingleParams",
          "name": "params",
          "type": "tuple"
        }
      ],
      "name": "exactInputSingle",
      "outputs": [
        {
          "internalType": "uint256",
          "name": "amountOut",
          "type": "uint256"
        }
      ],
      "stateMutability": "payable",
      "type": "function"
    },
    {
      "inputs": [
        {
          "components": [
            {
              "internalType": "bytes",
              "name": "path",
              "type": "bytes"
            },
            {
              "internalType": "address",
              "name": "recipient",
              "type": "address"
            },
            {
              "internalType": "uint256",
              "name": "deadline",
              "type": "uint256"
            },
            {
              "internalType": "uint256",
              "name": "amountOut",
              "type": "uint256"
            },
            {
              "internalType": "uint256",
              "name": "amountInMaximum",
              "type": "uint256"
            }
          ],
          "internalType": "struct ISwapRouter.ExactOutputParams",
          "name": "params",
          "type": "tuple"
        }
      ],
      "name": "exactOutput",
      "outputs": [
        {
          "internalType": "uint256",
          "name": "amountIn",
          "type": "uint256"
        }
      ],
      "stateMutability": "payable",
      "type": "function"
    },
    {
      "inputs": [
        {
          "components": [
            {
              "internalType": "address",
              "name": "tokenIn",
              "type": "address"
            },
            {
              "internalType": "address",
              "name": "tokenOut",
              "type": "address"
            },
            {
              "internalType": "uint24",
              "name": "fee",
              "type": "uint24"
            },
            {
              "internalType": "address",
              "name": "recipient",
              "type": "address"
            },
            {
              "internalType": "uint256",
              "name": "deadline",
              "type": "uint256"
            },
            {
              "internalType": "uint256",
              "name": "amountOut",
              "type": "uint256"
            },
            {
              "internalType": "uint256",
              "name": "amountInMaximum",
              "type": "uint256"
            },
            {
              "internalType": "uint160",
              "name": "sqrtPriceLimitX96",
              "type": "uint160"
            }
          ],
          "internalType": "struct ISwapRouter.ExactOutputSingleParams",
          "name": "params",
          "type": "tuple"
        }
      ],
      "name": "exactOutputSingle",
      "outputs": [
        {
          "internalType": "uint256",
          "name": "amountIn",
          "type": "uint256"
        }
      ],
      "stateMutability": "payable",
      "type": "function"
    },
    {
      "inputs": [],
      "name": "factory",
      "outputs": [
        {
          "internalType": "address",
          "name": "",
          "type": "address"
        }
      ],
      "stateMutability": "view",
      "type": "function"
    },
    {
      "inputs": [
        {
          "internalType": "bytes[]",
          "name": "data",
          "type": "bytes[]"
        }
      ],
      "name": "multicall",
      "outputs": [
        {
          "internalType": "bytes[]",
          "name": "results",
          "type": "bytes[]"
        }
      ],
      "stateMutability": "payable",
      "type": "function"
    },
    {
      "inputs": [],
      "name": "refundETH",
      "outputs": [],
      "stateMutability": "payable",
      "type": "function"
    },
    {
      "inputs": [
        {
          "internalType": "address",
          "name": "token",
          "type": "address"
        },
        {
          "internalType": "uint256",
          "name": "value",
          "type": "uint256"
        },
        {
          "internalType": "uint256",
          "name": "deadline",
          "type": "uint256"
        },
        {
          "internalType": "uint8",
          "name": "v",
          "type": "uint8"
        },
        {
          "internalType": "bytes32",
          "name": "r",
          "type": "bytes32"
        },
        {
          "internalType": "bytes32",
          "name": "s",
          "type": "bytes32"
        }
      ],
      "name": "selfPermit",
      "outputs": [],
      "stateMutability": "payable",
      "type": "function"
    },
    {
      "inputs": [
        {
          "internalType": "address",
          "name": "token",
          "type": "address"
        },
        {
          "internalType": "uint256",
          "name": "nonce",
          "type": "uint256"
        },
        {
          "internalType": "uint256",
          "name": "expiry",
          "type": "uint256"
        },
        {
          "internalType": "uint8",
          "name": "v",
          "type": "uint8"
        },
        {
          "internalType": "bytes32",
          "name": "r",
          "type": "bytes32"
        },
        {
          "internalType": "bytes32",
          "name": "s",
          "type": "bytes32"
        }
      ],
      "name": "selfPermitAllowed",
      "outputs": [],
      "stateMutability": "payable",
      "type": "function"
    },
    {
      "inputs": [
        {
          "internalType": "address",
          "name": "token",
          "type": "address"
        },
        {
          "internalType": "uint256",
          "name": "nonce",
          "type": "uint256"
        },
        {
          "internalType": "uint256",
          "name": "expiry",
          "type": "uint256"
        },
        {
          "internalType": "uint8",
          "name": "v",
          "type": "uint8"
        },
        {
          "internalType": "bytes32",
          "name": "r",
          "type": "bytes32"
        },
        {
          "internalType": "bytes32",
          "name": "s",
          "type": "bytes32"
        }
      ],
      "name": "selfPermitAllowedIfNecessary",
      "outputs": [],
      "stateMutability": "payable",
      "type": "function"
    },
    {
      "inputs": [
        {
          "internalType": "address",
          "name": "token",
          "type": "address"
        },
        {
          "internalType": "uint256",
          "name": "value",
          "type": "uint256"
        },
        {
          "internalType": "uint256",
          "name": "deadline",
          "type": "uint256"
        },
        {
          "internalType": "uint8",
          "name": "v",
          "type": "uint8"
        },
        {
          "internalType": "bytes32",
          "name": "r",
          "type": "bytes32"
        },
        {
          "internalType": "bytes32",
          "name": "s",
          "type": "bytes32"
        }
      ],
      "name": "selfPermitIfNecessary",
      "outputs": [],
      "stateMutability": "payable",
      "type": "function"
    },
    {
      "inputs": [
        {
          "internalType": "address",
          "name": "token",
          "type": "address"
        },
        {
          "internalType": "uint256",
          "name": "amountMinimum",
          "type": "uint256"
        },
        {
          "internalType": "address",
          "name": "recipient",
          "type": "address"
        }
      ],
      "name": "sweepToken",
      "outputs": [],
      "stateMutability": "payable",
      "type": "function"
    },
    {
      "inputs": [
        {
          "internalType": "address",
          "name": "token",
          "type": "address"
        },
        {
          "internalType": "uint256",
          "name": "amountMinimum",
          "type": "uint256"
        },
        {
          "internalType": "address",
          "name": "recipient",
          "type": "address"
        },
        {
          "internalType": "uint256",
          "name": "feeBips",
          "type": "uint256"
        },
        {
          "internalType": "address",
          "name": "feeRecipient",
          "type": "address"
        }
      ],
      "name": "sweepTokenWithFee",
      "outputs": [],
      "stateMutability": "payable",
      "type": "function"
    },
    {
      "inputs": [
        {
          "internalType": "int256",
          "name": "amount0Delta",
          "type": "int256"
        },
        {
          "internalType": "int256",
          "name": "amount1Delta",
          "type": "int256"
        },
        {
          "internalType": "bytes",
          "name": "_data",
          "type": "bytes"
        }
      ],
      "name": "uniswapV3SwapCallback",
      "outputs": [],
      "stateMutability": "nonpayable",
      "type": "function"
    },
    {
      "inputs": [
        {
          "internalType": "uint256",
          "name": "amountMinimum",
          "type": "uint256"
        },
        {
          "internalType": "address",
          "name": "recipient",
          "type": "address"
        }
      ],
      "name": "unwrapWETH9",
      "outputs": [],
      "stateMutability": "payable",
      "type": "function"
    },
    {
      "inputs": [
        {
          "internalType": "uint256",
          "name": "amountMinimum",
          "type": "uint256"
        },
        {
          "internalType": "address",
          "name": "recipient",
          "type": "address"
        },
        {
          "internalType": "uint256",
          "name": "feeBips",
          "type": "uint256"
        },
        {
          "internalType": "address",
          "name": "feeRecipient",
          "type": "address"
        }
      ],
      "name": "unwrapWETH9WithFee",
      "outputs": [],
      "stateMutability": "payable",
      "type": "function"
    },
    {
      "stateMutability": "payable",
      "type": "receive"
    }
  ],
  "bytecode": "0x60c06040526000196000553480156200001757600080fd5b50604051620027fa380380620027fa8339810160408190526200003a9162000076565b6001600160601b0319606092831b8116608052911b1660a052620000ad565b80516001600160a01b03811681146200007157600080fd5b919050565b6000806040838503121562000089578182fd5b620000948362000059565b9150620000a46020840162000059565b90509250929050565b60805160601c60a05160601c6126f2620001086000398060f252806104a75280610592528061061f528061065f528061074a5280611700528061174652806117ba525080610b82528061107d528061189552506126f26000f3fe6080604052600436106100e25760003560e01c8063c04b8d5911610085578063c04b8d5914610216578063c2e3140a14610229578063c45a01551461023c578063db3e219814610251578063df2ab5bb14610264578063e0e189a014610277578063f28c04981461028a578063f3995c671461029d578063fa461e33146102b057610152565b806312210e8a14610157578063414bf3891461015f5780634659a4941461018857806349404b7c1461019b5780634aa4a4fc146101ae5780639b2c0a37146101d0578063a4a78f0c146101e3578063ac9650d8146101f657610152565b3661015257336001600160a01b037f00000000000000000000000000000000000000000000000000000000000000001614610150576040805162461bcd60e51b81526020600482015260096024820152684e6f7420574554483960b81b604482015290519081900360640190fd5b005b600080fd5b6101506102d0565b61017261016d36600461228e565b6102e2565b60405161017f91906125e0565b60405180910390f35b610150610196366004612010565b610409565b6101506101a9366004612393565b6104a3565b3480156101ba57600080fd5b506101c361061d565b60405161017f919061247d565b6101506101de3660046123c2565b610641565b6101506101f1366004612010565b61080d565b610209610204366004612070565b61089e565b60405161017f91906124d7565b6101726102243660046121e4565b6109dd565b610150610237366004612010565b610af1565b34801561024857600080fd5b506101c3610b80565b61017261025f36600461228e565b610ba4565b610150610272366004611f71565b610ccb565b610150610285366004611fb2565b610da9565b6101726102983660046122aa565b610ed0565b6101506102ab366004612010565b610fc6565b3480156102bc57600080fd5b506101506102cb366004612101565b611038565b47156102e0576102e0334761114b565b565b60008160800135806102f261123a565b111561033b576040805162461bcd60e51b8152602060048201526013602482015272151c985b9cd858dd1a5bdb881d1bdbc81bdb19606a1b604482015290519081900360640190fd5b6103d460a08401356103536080860160608701611f4e565b610364610100870160e08801611f4e565b604080518082019091528061037c60208a018a611f4e565b61038c60608b0160408c01612370565b61039c60408c0160208d01611f4e565b6040516020016103ae93929190612437565b6040516020818303038152906040528152602001336001600160a01b031681525061123e565b91508260c001358210156104035760405162461bcd60e51b81526004016103fa90612576565b60405180910390fd5b50919050565b604080516323f2ebc360e21b815233600482015230602482015260448101879052606481018690526001608482015260ff851660a482015260c4810184905260e4810183905290516001600160a01b03881691638fcbaf0c9161010480830192600092919082900301818387803b15801561048357600080fd5b505af1158015610497573d6000803e3d6000fd5b50505050505050505050565b60007f00000000000000000000000000000000000000000000000000000000000000006001600160a01b03166370a08231306040518263ffffffff1660e01b815260040180826001600160a01b0316815260200191505060206040518083038186803b15801561051257600080fd5b505afa158015610526573d6000803e3d6000fd5b505050506040513d602081101561053c57600080fd5b505190508281101561058a576040805162461bcd60e51b8152602060048201526012602482015271496e73756666696369656e7420574554483960701b604482015290519081900360640190fd5b8015610618577f00000000000000000000000000000000000000000000000000000000000000006001600160a01b0316632e1a7d4d826040518263ffffffff1660e01b815260040180828152602001915050600060405180830381600087803b1580156105f657600080fd5b505af115801561060a573d6000803e3d6000fd5b50505050610618828261114b565b505050565b7f000000000000000000000000000000000000000000000000000000000000000081565b600082118015610652575060648211155b61065b57600080fd5b60007f00000000000000000000000000000000000000000000000000000000000000006001600160a01b03166370a08231306040518263ffffffff1660e01b815260040180826001600160a01b0316815260200191505060206040518083038186803b1580156106ca57600080fd5b505afa1580156106de573d6000803e3d6000fd5b505050506040513d60208110156106f457600080fd5b5051905084811015610742576040805162461bcd60e51b8152602060048201526012602482015271496e73756666696369656e7420574554483960701b604482015290519081900360640190fd5b8015610806577f00000000000000000000000000000000000000000000000000000000000000006001600160a01b0316632e1a7d4d826040518263ffffffff1660e01b815260040180828152602001915050600060405180830381600087803b1580156107ae57600080fd5b505af11580156107c2573d6000803e3d6000fd5b5050505060006127106107de858461139090919063ffffffff16565b816107e557fe5b04905080156107f8576107f8838261114b565b6108048582840361114b565b505b5050505050565b60408051636eb1769f60e11b81523360048201523060248201529051600019916001600160a01b0389169163dd62ed3e91604480820192602092909190829003018186803b15801561085e57600080fd5b505afa158015610872573d6000803e3d6000fd5b505050506040513d602081101561088857600080fd5b5051101561080457610804868686868686610409565b6060816001600160401b03811180156108b657600080fd5b506040519080825280602002602001820160405280156108ea57816020015b60608152602001906001900390816108d55790505b50905060005b828110156109d6576000803086868581811061090857fe5b905060200281019061091a91906125e9565b60405161092892919061246d565b600060405180830381855af49150503d8060008114610963576040519150601f19603f3d011682016040523d82523d6000602084013e610968565b606091505b5091509150816109b45760448151101561098157600080fd5b6004810190508080602001905181019061099b919061217b565b60405162461bcd60e51b81526004016103fa9190612537565b808484815181106109c157fe5b602090810291909101015250506001016108f0565b5092915050565b60008160400151806109ed61123a565b1115610a36576040805162461bcd60e51b8152602060048201526013602482015272151c985b9cd858dd1a5bdb881d1bdbc81bdb19606a1b604482015290519081900360640190fd5b335b6000610a4785600001516113ba565b9050610a93856060015182610a60578660200151610a62565b305b60006040518060400160405280610a7c8b600001516113c6565b8152602001876001600160a01b031681525061123e565b60608601528015610ab3578451309250610aac906113d5565b8552610ac0565b8460600151935050610ac6565b50610a38565b8360800151831015610aea5760405162461bcd60e51b81526004016103fa90612576565b5050919050565b60408051636eb1769f60e11b8152336004820152306024820152905186916001600160a01b0389169163dd62ed3e91604480820192602092909190829003018186803b158015610b4057600080fd5b505afa158015610b54573d6000803e3d6000fd5b505050506040513d6020811015610b6a57600080fd5b5051101561080457610804868686868686610fc6565b7f000000000000000000000000000000000000000000000000000000000000000081565b6000816080013580610bb461123a565b1115610bfd576040805162461bcd60e51b8152602060048201526013602482015272151c985b9cd858dd1a5bdb881d1bdbc81bdb19606a1b604482015290519081900360640190fd5b610c9960a0840135610c156080860160608701611f4e565b610c26610100870160e08801611f4e565b6040518060400160405280886020016020810190610c449190611f4e565b610c5460608b0160408c01612370565b610c6160208c018c611f4e565b604051602001610c7393929190612437565b6040516020818303038152906040528152602001336001600160a01b03168152506113ec565b91508260c00135821115610cbf5760405162461bcd60e51b81526004016103fa9061254a565b50600019600055919050565b6000836001600160a01b03166370a08231306040518263ffffffff1660e01b815260040180826001600160a01b0316815260200191505060206040518083038186803b158015610d1a57600080fd5b505afa158015610d2e573d6000803e3d6000fd5b505050506040513d6020811015610d4457600080fd5b5051905082811015610d92576040805162461bcd60e51b815260206004820152601260248201527124b739bab33334b1b4b2b73a103a37b5b2b760711b604482015290519081900360640190fd5b8015610da357610da3848383611567565b50505050565b600082118015610dba575060648211155b610dc357600080fd5b6000856001600160a01b03166370a08231306040518263ffffffff1660e01b815260040180826001600160a01b0316815260200191505060206040518083038186803b158015610e1257600080fd5b505afa158015610e26573d6000803e3d6000fd5b505050506040513d6020811015610e3c57600080fd5b5051905084811015610e8a576040805162461bcd60e51b815260206004820152601260248201527124b739bab33334b1b4b2b73a103a37b5b2b760711b604482015290519081900360640190fd5b8015610804576000612710610e9f8386611390565b81610ea657fe5b0490508015610eba57610eba878483611567565b610ec78786838503611567565b50505050505050565b6000816040013580610ee061123a565b1115610f29576040805162461bcd60e51b8152602060048201526013602482015272151c985b9cd858dd1a5bdb881d1bdbc81bdb19606a1b604482015290519081900360640190fd5b610f9c6060840135610f416040860160208701611f4e565b6040805180820190915260009080610f5989806125e9565b8080601f016020809104026020016040519081016040528093929190818152602001838380828437600092019190915250505090825250336020909101526113ec565b5060005491508260800135821115610cbf5760405162461bcd60e51b81526004016103fa9061254a565b6040805163d505accf60e01b8152336004820152306024820152604481018790526064810186905260ff8516608482015260a4810184905260c4810183905290516001600160a01b0388169163d505accf9160e480830192600092919082900301818387803b15801561048357600080fd5b60008413806110475750600083135b61105057600080fd5b600061105e828401846122e1565b9050600080600061107284600001516116ae565b9250925092506110a47f00000000000000000000000000000000000000000000000000000000000000008484846116df565b5060008060008a136110cb57846001600160a01b0316846001600160a01b031610896110e2565b836001600160a01b0316856001600160a01b0316108a5b915091508115611101576110fc85876020015133846116fe565b610497565b855161110c906113ba565b1561113157855161111c906113d5565b865261112b81336000896113ec565b50610497565b8060008190555083945061049785876020015133846116fe565b604080516000808252602082019092526001600160a01b0384169083906040518082805190602001908083835b602083106111975780518252601f199092019160209182019101611178565b6001836020036101000a03801982511681845116808217855250505050505090500191505060006040518083038185875af1925050503d80600081146111f9576040519150601f19603f3d011682016040523d82523d6000602084013e6111fe565b606091505b5050905080610618576040805162461bcd60e51b815260206004820152600360248201526253544560e81b604482015290519081900360640190fd5b4290565b60006001600160a01b038416611252573093505b600080600061126485600001516116ae565b919450925090506001600160a01b038083169084161060008061128886868661188e565b6001600160a01b031663128acb088b856112a18f6118cc565b6001600160a01b038e16156112b6578d6112dc565b876112d55773fffd8963efd1fc6a506488495d951d5263988d256112dc565b6401000276a45b8d6040516020016112ed91906125a3565b6040516020818303038152906040526040518663ffffffff1660e01b815260040161131c959493929190612491565b6040805180830381600087803b15801561133557600080fd5b505af1158015611349573d6000803e3d6000fd5b505050506040513d601f19601f8201168201806040525081019061136d91906120de565b915091508261137c578161137e565b805b6000039b9a5050505050505050505050565b60008215806113ab575050818102818382816113a857fe5b04145b6113b457600080fd5b92915050565b8051604211155b919050565b60606113b4826000602b6118e2565b80516060906113b4908390601790601619016118e2565b60006001600160a01b038416611400573093505b600080600061141285600001516116ae565b919450925090506001600160a01b038084169083161060008061143685878661188e565b6001600160a01b031663128acb088b8561144f8f6118cc565b6000036001600160a01b038e1615611467578d61148d565b876114865773fffd8963efd1fc6a506488495d951d5263988d2561148d565b6401000276a45b8d60405160200161149e91906125a3565b6040516020818303038152906040526040518663ffffffff1660e01b81526004016114cd959493929190612491565b6040805180830381600087803b1580156114e657600080fd5b505af11580156114fa573d6000803e3d6000fd5b505050506040513d601f19601f8201168201806040525081019061151e91906120de565b91509150600083611533578183600003611539565b82826000035b90985090506001600160a01b038a16611558578b811461155857600080fd5b50505050505050949350505050565b604080516001600160a01b038481166024830152604480830185905283518084039091018152606490920183526020820180516001600160e01b031663a9059cbb60e01b1781529251825160009485949389169392918291908083835b602083106115e35780518252601f1990920191602091820191016115c4565b6001836020036101000a0380198251168184511680821785525050505050509050019150506000604051808303816000865af19150503d8060008114611645576040519150601f19603f3d011682016040523d82523d6000602084013e61164a565b606091505b5091509150818015611678575080511580611678575080806020019051602081101561167557600080fd5b50515b610806576040805162461bcd60e51b815260206004820152600260248201526114d560f21b604482015290519081900360640190fd5b600080806116bc8482611a33565b92506116c9846014611ae3565b90506116d6846017611a33565b91509193909250565b60006116f5856116f0868686611b8a565b611c8c565b95945050505050565b7f00000000000000000000000000000000000000000000000000000000000000006001600160a01b0316846001600160a01b031614801561173f5750804710155b15611861577f00000000000000000000000000000000000000000000000000000000000000006001600160a01b031663d0e30db0826040518263ffffffff1660e01b81526004016000604051808303818588803b15801561179f57600080fd5b505af11580156117b3573d6000803e3d6000fd5b50505050507f00000000000000000000000000000000000000000000000000000000000000006001600160a01b031663a9059cbb83836040518363ffffffff1660e01b815260040180836001600160a01b0316815260200182815260200192505050602060405180830381600087803b15801561182f57600080fd5b505af1158015611843573d6000803e3d6000fd5b505050506040513d602081101561185957600080fd5b50610da39050565b6001600160a01b0383163014156118825761187d848383611567565b610da3565b610da384848484611caf565b60006118c47f00000000000000000000000000000000000000000000000000000000000000006118bf868686611b8a565b611dff565b949350505050565b6000600160ff1b82106118de57600080fd5b5090565b60608182601f01101561192d576040805162461bcd60e51b815260206004820152600e60248201526d736c6963655f6f766572666c6f7760901b604482015290519081900360640190fd5b828284011015611975576040805162461bcd60e51b815260206004820152600e60248201526d736c6963655f6f766572666c6f7760901b604482015290519081900360640190fd5b818301845110156119c1576040805162461bcd60e51b8152602060048201526011602482015270736c6963655f6f75744f66426f756e647360781b604482015290519081900360640190fd5b6060821580156119e05760405191506000825260208201604052611a2a565b6040519150601f8416801560200281840101858101878315602002848b0101015b81831015611a19578051835260209283019201611a01565b5050858452601f01601f1916604052505b50949350505050565b600081826014011015611a82576040805162461bcd60e51b8152602060048201526012602482015271746f416464726573735f6f766572666c6f7760701b604482015290519081900360640190fd5b8160140183511015611ad3576040805162461bcd60e51b8152602060048201526015602482015274746f416464726573735f6f75744f66426f756e647360581b604482015290519081900360640190fd5b500160200151600160601b900490565b600081826003011015611b31576040805162461bcd60e51b8152602060048201526011602482015270746f55696e7432345f6f766572666c6f7760781b604482015290519081900360640190fd5b8160030183511015611b81576040805162461bcd60e51b8152602060048201526014602482015273746f55696e7432345f6f75744f66426f756e647360601b604482015290519081900360640190fd5b50016003015190565b611b92611ec0565b826001600160a01b0316846001600160a01b03161415611be9576040805162461bcd60e51b815260206004820152600d60248201526c14104e8812511153951250d053609a1b604482015290519081900360640190fd5b600080846001600160a01b0316866001600160a01b031610611c0c578486611c0f565b85855b90925090506001600160a01b038216611c5a576040805162461bcd60e51b815260206004820152600860248201526750413a205a45524f60c01b604482015290519081900360640190fd5b604080516060810182526001600160a01b03938416815291909216602082015262ffffff909316908301525092915050565b6000611c988383611dff565b9050336001600160a01b038216146113b457600080fd5b604080516001600160a01b0385811660248301528481166044830152606480830185905283518084039091018152608490920183526020820180516001600160e01b03166323b872dd60e01b178152925182516000948594938a169392918291908083835b60208310611d335780518252601f199092019160209182019101611d14565b6001836020036101000a0380198251168184511680821785525050505050509050019150506000604051808303816000865af19150503d8060008114611d95576040519150601f19603f3d011682016040523d82523d6000602084013e611d9a565b606091505b5091509150818015611dc8575080511580611dc85750808060200190516020811015611dc557600080fd5b50515b610804576040805162461bcd60e51b815260206004820152600360248201526229aa2360e91b604482015290519081900360640190fd5b805160208083015160409384015184516001600160a01b0394851681850152939091168385015262ffffff16606080840191909152835180840390910181526080830184528051908201206001600160f81b031960a0840152737426f5fc3abb2286a7848bf1387458d7ae7ce9c960601b60a184015260b58301527f0ae75198b494ad1f1b0510036c21aad5e3f8647d8260c8e1b941c3b1101573ed60d5808401919091528351808403909101815260f59092019092528051910120919050565b604080516060810182526000808252602082018190529181019190915290565b80356113c1816126a4565b600082601f830112611efb578081fd5b8135611f0e611f0982612657565b612634565b818152846020838601011115611f22578283fd5b816020850160208301379081016020019190915292915050565b60006101008284031215610403578081fd5b600060208284031215611f5f578081fd5b8135611f6a816126a4565b9392505050565b600080600060608486031215611f85578182fd5b8335611f90816126a4565b9250602084013591506040840135611fa7816126a4565b809150509250925092565b600080600080600060a08688031215611fc9578081fd5b8535611fd4816126a4565b9450602086013593506040860135611feb816126a4565b9250606086013591506080860135612002816126a4565b809150509295509295909350565b60008060008060008060c08789031215612028578081fd5b8635612033816126a4565b95506020870135945060408701359350606087013560ff81168114612056578182fd5b9598949750929560808101359460a0909101359350915050565b60008060208385031215612082578182fd5b82356001600160401b0380821115612098578384fd5b818501915085601f8301126120ab578384fd5b8135818111156120b9578485fd5b86602080830285010111156120cc578485fd5b60209290920196919550909350505050565b600080604083850312156120f0578182fd5b505080516020909101519092909150565b60008060008060608587031215612116578182fd5b843593506020850135925060408501356001600160401b038082111561213a578384fd5b818701915087601f83011261214d578384fd5b81358181111561215b578485fd5b88602082850101111561216c578485fd5b95989497505060200194505050565b60006020828403121561218c578081fd5b81516001600160401b038111156121a1578182fd5b8201601f810184136121b1578182fd5b80516121bf611f0982612657565b8181528560208385010111156121d3578384fd5b6116f5826020830160208601612678565b6000602082840312156121f5578081fd5b81356001600160401b038082111561220b578283fd5b9083019060a0828603121561221e578283fd5b60405160a08101818110838211171561223357fe5b604052823582811115612244578485fd5b61225087828601611eeb565b82525061225f60208401611ee0565b602082015260408301356040820152606083013560608201526080830135608082015280935050505092915050565b600061010082840312156122a0578081fd5b611f6a8383611f3c565b6000602082840312156122bb578081fd5b81356001600160401b038111156122d0578182fd5b820160a08185031215611f6a578182fd5b6000602082840312156122f2578081fd5b81356001600160401b0380821115612308578283fd5b908301906040828603121561231b578283fd5b60405160408101818110838211171561233057fe5b604052823582811115612341578485fd5b61234d87828601611eeb565b82525060208301359250612360836126a4565b6020810192909252509392505050565b600060208284031215612381578081fd5b813562ffffff81168114611f6a578182fd5b600080604083850312156123a5578182fd5b8235915060208301356123b7816126a4565b809150509250929050565b600080600080608085870312156123d7578182fd5b8435935060208501356123e9816126a4565b9250604085013591506060850135612400816126a4565b939692955090935050565b60008151808452612423816020860160208601612678565b601f01601f19169290920160200192915050565b606093841b6001600160601b0319908116825260e89390931b6001600160e81b0319166014820152921b166017820152602b0190565b6000828483379101908152919050565b6001600160a01b0391909116815260200190565b6001600160a01b0386811682528515156020830152604082018590528316606082015260a0608082018190526000906124cc9083018461240b565b979650505050505050565b6000602080830181845280855180835260408601915060408482028701019250838701855b8281101561252a57603f1988860301845261251885835161240b565b945092850192908501906001016124fc565b5092979650505050505050565b600060208252611f6a602083018461240b565b602080825260129082015271151bdbc81b5d58da081c995c5d595cdd195960721b604082015260600190565b602080825260139082015272151bdbc81b1a5d1d1b19481c9958d95a5d9959606a1b604082015260600190565b6000602082528251604060208401526125bf606084018261240b565b602094909401516001600160a01b0316604093909301929092525090919050565b90815260200190565b6000808335601e198436030181126125ff578283fd5b8301803591506001600160401b03821115612618578283fd5b60200191503681900382131561262d57600080fd5b9250929050565b6040518181016001600160401b038111828210171561264f57fe5b604052919050565b60006001600160401b0382111561266a57fe5b50601f01601f191660200190565b60005b8381101561269357818101518382015260200161267b565b83811115610da35750506000910152565b6001600160a01b03811681146126b957600080fd5b5056fea26469706673582212202c02d00e443f031d729236905bef06229515a2ada3ffc44c93bba27529c50a6364736f6c63430007060033",
  "linkReferences": {},
  "deployedLinkReferences": {}
}